:100000000C9472000C9493000C9493000C94930045
:100010000C9493000C9493000C9493000C94930014
:100020000C9493000C9493000C9493000C94930004
:100030000C9493000C9493000C9493000C949300F4
:100040000C9493000C9493000C9493000C949300E4
:100050000C9493000C9493000C9493000C949300D4
:100060000C9493000C9493000C9493000C949300C4
:100070000C9493000C9493000C9493000C949300B4
:100080000C9493000C9493000C9493000C949300A4
:100090000C9493000C9493000C9493000C94930094
:1000A0000C9493000C9493000C9493000C94930084
:1000B0000C9493000C9493000C9493000C94930074
:1000C0000C9493000C9493000C9493000C94930064
:1000D0000C9493000C9493000C9493000C94930054
:1000E0000C94930011241FBECFEFD1E2DEBFCDBF31
:1000F00000E00CBF12E0A0E0B2E0E6EFF4E100E0C7
:100100000BBF02C007900D92AC30B107D9F712E0D7
:10011000ACE0B2E001C01D92A332B107E1F70E944A
:100120007B070C94790A0C94000086E69EE0019708
:10013000F1F700004098419880E388B9429AEFEFC8
:10014000F7E43197F1F700C000004298E6E6FEE0E0
:100150003197F1F700004098419888B9429AEFEF43
:10016000F7E43197F1F700C000004298E6E6FEE0C0
:100170003197F1F700004098419888B9429A8FEF83
:1001800097E40197F1F700C000004298E6E6FEE030
:100190003197F1F700004098419880E288B9429A7F
:1001A0008FEF97E40197F1F700C00000429808959F
:1001B00098B19F7098B998B1282F207F922B98B949
:1001C00040984198429AEFEFF7E43197F1F700C079
:1001D0000000429898B19F7098B998B18295807F3D
:1001E000892B88B940984198429A8FEF97E40197FC
:1001F000F1F700C00000429808950E94950086E63D
:100200009EE00197F1F7000088E20E94D80081E0AB
:100210000E94D80086E00E94D8008EE00E94D8009C
:1002200080E80E94D800089598B19F7098B998B15D
:10023000282F207F922B98B9409A4198429AEFEF4D
:10024000F7E43197F1F700C00000429898B19F7031
:1002500098B998B18295807F892B88B9409A419846
:10026000429A8FEF97E40197F1F700C0000042989F
:10027000089580E80E94D8000895CF93DF93EC01A1
:100280008881882331F021960E9414018991882366
:10029000D9F7DF91CF910895823079F0833018F447
:1002A0008130C9F405C0833069F08430A1F40FC0F7
:1002B000862F81580E94D8000895862F81540E946D
:1002C000D8000895862F8D560E94D8000895862F55
:1002D0008D520E94D80008950F931F93CF93DF9300
:1002E0008A01E901882311F0662319F40E9439017B
:1002F00002C00E944C01C530D10571F4C80160E113
:1003000077E20E94AC07CB01C09690930F028093D6
:100310000E020E94140103C0C430D105B9F4C80113
:1003200068EE73E00E94AC07CB01709311026093FA
:1003300010026AE070E00E94AC07C09690931A0227
:10034000809319020E94140181E001C080E0C33053
:10035000D10511F08130B1F4C80164E670E00E946B
:10036000AC07CB0170931102609310026AE070E059
:100370000E94AC07C09690931602809315020E94CB
:10038000140181E0C230D10511F08130B1F42AE0CE
:1003900030E0C801B9010E94AC07CB017093110293
:1003A00060931002B9010E94AC07C09690931402AA
:1003B000809313020E94140181E0C130D10511F035
:1003C000813061F4C8016AE070E00E94AC07C09619
:1003D00090931802809317020E941401C630D10531
:1003E0001CF085E40E941401DF91CF911F910F91C1
:1003F00008953B9A4398089586B1886088B9089516
:1004000086B1877F88B908950E94FC018FEF9FEF26
:10041000A8E081509040A040E1F700C000000E9499
:1004200000028FEF9FEFA8E081509040A040E1F7DD
:1004300000C0000008950F931F93CF93DF93CDB7B3
:10044000DEB70DB71EB7EDB7FEB731968281938147
:1004500020813181821793075CF00E9493028FEF15
:100460009FEFA9E581509040A040E1F700C0000057
:100470000FB6F8941EBF0FBE0DBFDF91CF911F9135
:100480000F91089587B1876F87B988B1807888B94F
:10049000089581B18F6081B982B1807F82B9EAE02D
:1004A000F1E0808188618083EBE0F1E08081886108
:1004B0008083089510BA11BA1092070110920801B2
:1004C0000895E1E2F1E010828FEF8093850091E0E2
:1004D00090932401109229018093280110922B01FE
:1004E00080932A0110922D0180932C0189EA809338
:1004F00020018BE0808308958093280160932A0176
:10050000089522B130E0207F30708F7090E0282B6A
:10051000392B22B908958AE568E70E947C0285E0BC
:100520000E948102089588E764E60E947C028AE0C6
:100530000E948102089586E966E90E947C0286E0B5
:100540000E94810208958EE66EE60E947C0289E098
:100550000E948102089580E060E00E947C0280E0B9
:100560000E9481020895EAE7F0E0108210927B0079
:1005700080E280937C0080E880BF86E880830895D5
:10058000883018F098E090937B00877080628093A9
:100590007C00EAE7F0E0808180648083808184FFD2
:1005A000FDCF80917900EAE7F0E09081906190833F
:1005B00010927B0008950E9442020E945A020E94FB
:1005C00049020E94B3020895CF93DF93D82FC62F1C
:1005D000433071F483E00E94C002482F80930C02E4
:1005E0008D2F6C2F50E023E030E00E946C011FC083
:1005F000423071F482E00E94C002482F80930D02C5
:100600008D2F6C2F50E023E030E00E946C010FC072
:10061000413069F481E00E94C002482F80931202A9
:100620008D2F6C2F50E023E030E00E946C01DF91B1
:10063000CF910895F8940E94DB020E94B3020E94B9
:1006400061020E944202789408952F923F924F9245
:100650005F926F927F928F929F92AF92BF92CF9252
:10066000DF92EF92FF920F931F93CF93DF93CDB75B
:10067000DEB7C05ED0400FB6F894DEBF0FBECDBF70
:10068000A82E162FE42E022F2DB73EB7C352DF4FF0
:1006900039832883CD5DD0400E941A030E949500C3
:1006A0000E94FD00113469F0123469F0133469F0CE
:1006B000143469F0153469F0163469F0173471F4A4
:1006C0000CC010E00BC011E009C012E007C013E03D
:1006D00005C014E003C015E001C016E0612F70E012
:1006E000C153DF4F79836883CF5CD04000D00F9235
:1006F00080E092E0ADB7BEB712969C938E931197AF
:1007000014967C936E9313970E94C0070F900F90DE
:100710000F900F90013469F0023469F0033469F0EE
:10072000043469F0053469F0063469F0073471F473
:100730000CC000E00BC001E009C002E007C003E00C
:1007400005C004E003C005E001C006E010E000D0F1
:100750000F9280E092E0EDB7FEB79283818314831D
:1007600003830E94C0070F900F900F900F9082E3B9
:1007700090E00197F1F79E012F5F3F4FC552DF4F89
:1007800039832883CB5DD040BE016B597F4FC75260
:10079000DF4F79836883C95DD0409B01DB01C5527F
:1007A000DF4FE881F981CB5DD04083E690E0819313
:1007B00091938D939D93E217F307C9F784E090E03E
:1007C0009A83898381E090E0A7969FAF8EAFA79729
:1007D000C753DF4F19821882C95CD0404424552486
:1007E000439422243324239441E050E024E030E079
:1007F000BB246E2D70E0C8010196C952DF4F99836A
:100800008883C75DD040C952DF4FA881C75DD04003
:10081000C852DF4FB881C85DD0407B010894E11C0D
:10082000F11C97E0CD52DF4F9883C35DD040CC528E
:10083000DF4F1882C45DD040DD246894D1F8CC2409
:10084000C353DF4F6883CD5CD040C253DF4F788302
:10085000CE5CD0404B01089481089108CB52DF4F09
:10086000A882C55DD040CA52DF4FB882C65DD04075
:10087000FAC1CD52DF4F6880C35DD040CC52DF4F0C
:100880007880C45DD040A216B3060CF06FC0215032
:10089000304062177307C9F44017510709F454C078
:1008A000C353DF4F2881CD5CD040C253DF4F388126
:1008B000CE5CD040C553DF4F4883CB5CD040C4539F
:1008C000DF4F5883CC5CD0400AC0C553DF4F48830C
:1008D000CB5CD040C453DF4F5883CC5CD040C101C7
:1008E000880F991FE1E0F0E0EC0FFD1F8E0F9F1FB6
:1008F000FC0131832083F201EE0FFF1F85E690E0BB
:100900008C0F9D1FE80FF91FC553DF4F9881CB5CFB
:10091000D0409083C453DF4F8881CC5CD04081832A
:100920000894211C311C0894411C511CC753DF4FF3
:10093000E881F981C95CD0403196C753DF4FF98314
:10094000E883C95CD04085C00130110521F49701CE
:100950004D2D5C2D9ECF0830110521F49701462DB9
:10096000572D97CF4A2F5B2F970193CF2A153B0521
:100970000CF06FC02F5F3F4F62177307C9F4401729
:10098000510709F454C0C353DF4F2881CD5CD040D8
:10099000C253DF4F3881CE5CD040C553DF4F488310
:1009A000CB5CD040C453DF4F5883CC5CD0400AC0EE
:1009B000C553DF4F4883CB5CD040C453DF4F5883CF
:1009C000CC5CD040C101880F991FE1E0F0E0EC0F52
:1009D000FD1F8E0F9F1FFC0131832083F201EE0F5C
:1009E000FF1F85E690E08C0F9D1FE80FF91FC55390
:1009F000DF4F9881CB5CD0409083C453DF4F888118
:100A0000CC5CD04081830894211C311C0894411C8B
:100A1000511CC753DF4FE881F981C95CD040319642
:100A2000C753DF4FF983E883C95CD04012C001305F
:100A3000110521F494014D2D5C2D9ECF0830110538
:100A400021F49401462D572D97CF4A2F5B2F940107
:100A500093CFA216B30609F016CFCB52DF4F2881F1
:100A6000C55DD040CA52DF4F3881C65DD040C1530A
:100A7000DF4F88819981CF5CD0408417950709F4B6
:100A8000F2C0E9E0F0E0C553DF4F0883CB5CD04013
:100A9000C453DF4F1883CC5CD04038010894610800
:100AA0007108CF52DF4F28813981C15DD040C152DA
:100AB000DF4FA883CF5DD040C052DF4FB883C05E08
:100AC000D040C153DF4FA881B981CF5CD040A4177B
:100AD000B5070CF057C0415050400417150769F492
:100AE00026173707B9F1C553DF4F4881CB5CD0409B
:100AF000C453DF4F5881CC5CD040D101AA0FBB1F3B
:100B000081E090E08C0F9D1F8A0F9B1FDC012D93CD
:100B10003C93C201880F991FA5E6B0E0AC0FBD1F42
:100B20008A0F9B1FDC0111965C934E930894211C45
:100B3000311C0894411C511CC753DF4F8881998197
:100B4000C95CD0400196C753DF4F99838883C95C45
:100B5000D04075C00130110529F42F5F3F4F42E0AE
:100B600050E0CBCF0830110521F421503040AF01C7
:100B7000C4CF2F5F3F4FC952DF4F48815981C75DB6
:100B8000D040BBCFC153DF4FA881B981CF5CD040EB
:100B90004A175B070CF053C04F5F5F4F04171507F0
:100BA00069F426173707B9F1C553DF4F4881CB5C8D
:100BB000D040C453DF4F5881CC5CD040C101880F76
:100BC000991FA1E0B0E0AC0FBD1F8A0F9B1FDC0195
:100BD0002D933C93C201880F991FA5E6B0E0AC0F9E
:100BE000BD1F8A0F9B1FDC0111965C934E930894E6
:100BF000211C311C0894411C511CC753DF4F8881B4
:100C00009981C95CD0400196C753DF4F998388838F
:100C1000C95CD04014C00130110529F42F5F3F4F4B
:100C200040E050E0CBCF0830110529F4215030408E
:100C300047E050E0C3CF2F5F3F4FA301BFCFC15369
:100C4000DF4FA881B981CF5CD040A417B50709F068
:100C500038CFC152DF4FA881CF5DD040C052DF4FA7
:100C6000B881C05ED040CF52DF4FB982A882C15D4B
:100C7000D040A216B30609F0FCCDC153DF4FE88186
:100C8000F981CF5CD0404E175F0709F0FACEC75309
:100C9000DF4F28813981C95CD04033230CF442C036
:100CA00000E010E00F2EF0E0EF2EF2E0FF2EF02D2E
:100CB000C552DF4FA880B980CB5DD0404901C752F3
:100CC000DF4FC880D980C95DD040D5018D919D91FD
:100CD0005D01F601419151916F0100D00F92ADB7C6
:100CE000BEB71296FC92EE92119701979C01220FCB
:100CF000331F220F331F220F331FF901E81BF90B9B
:100D0000CF01840F951F14969C938E9313970E9486
:100D1000C0070F5F1F4F0F900F900F900F9080161E
:100D200091069CF6C753DF4F08811981C95CD040FA
:100D30000F5F1F4F00D00F9284E092E0ADB7BEB7B7
:100D400012969C938E93119714961C930E9313975F
:100D50000E94C007000F111F0F900F900F900F906F
:100D6000EDB7FEB7E01BF10B0FB6F894FEBF0FBE58
:100D7000EDBF8DB79EB70196C753DF4F28813981EC
:100D8000C95CD040121613060CF090C08824992438
:100D9000689481F8880E991E0F2EFDE2CF2EDD2477
:100DA000F02DAA24BB24860139010894A11CB11C92
:100DB000D401CD90DD904D01C8010196C816D90629
:100DC00061F50E9493026FEF7FE784E0615070400D
:100DD0008040E1F700C0000081E061E041E00E9456
:100DE000E40281E065E042E00E94E40281E069E023
:100DF00043E00E94E4020E949B0280910D02843233
:100E000040F080910C02843220F0809112028432F2
:100E100018F70E941B02860143C078010894E1087C
:100E2000F108EC14FD0461F50E948B028FEF9FE73F
:100E3000A4E081509040A040E1F700C0000081E0B4
:100E400061E041E00E94E40281E065E042E00E944E
:100E5000E40281E069E043E00E94E4020E949B0218
:100E600080910D02843240F080910C02843220F097
:100E700080911202843218F70E941B02870110C071
:100E80000F2EF9EFEF2EFFEFFF2EF02DE00EF11EEB
:100E9000EC14FD0429F40E949B020E941B028701AE
:100EA0000E94AB02A614B70409F07FCFC352DF4FF4
:100EB000A881B981CD5DD0400FB6F894BEBF0FBEFA
:100EC000ADBFC052DF4F0FB6F894DEBF0FBECDBF2F
:100ED000DF91CF911F910F91FF90EF90DF90CF9016
:100EE000BF90AF909F908F907F906F905F904F904A
:100EF0003F902F90089585E064E446E024E40E944A
:100F000025030E94FC018FEF9FE7A6E181509040EE
:100F1000A040E1F700C000000E94000282E066E409
:100F200042E024E40E9425030E94FC018FEF9FE72A
:100F3000A6E181509040A040E1F700C000000E946F
:100F4000000282E061E442E023E40E9425030E9463
:100F5000FC0180E090E00895AA1BBB1B51E107C093
:100F6000AA1FBB1FA617B70710F0A61BB70B881F39
:100F7000991F5A95A9F780959095BC01CD010895C8
:100F8000CF93DF93CDB7DEB7FE01369661917191B5
:100F900080911F0290912002AF010E94D207DF9141
:100FA000CF9108952F923F924F925F926F927F92CE
:100FB0008F929F92AF92BF92CF92DF92EF92FF9269
:100FC0000F931F93CF93DF93CDB7DEB72D970FB657
:100FD000F894DEBF0FBECDBF3C017D876C875A0100
:100FE000FC0117821682838181FFC8C12E010894FB
:100FF000411C511CF3019381EC85FD8593FD859186
:1010000093FF8191FD87EC87882309F4B3C1853272
:1010100041F493FD859193FF8191FD87EC878532A3
:1010200029F490E0B3010E94EF09E4CFFF24EE24FD
:1010300010E01032B0F48B3269F08C3228F4803238
:1010400051F0833271F40BC08D3239F0803349F4A2
:1010500011602CC01260146029C0186027C0106194
:1010600025C017FD2EC0282F20532A3098F416FFD4
:1010700008C08F2D880FF82EFF0CFF0CF80EF20E13
:1010800015C08E2D880FE82EEE0CEE0CE80EE20E49
:1010900010620CC08E3221F416FD6CC1106406C0C3
:1010A0008C3611F4106802C0883659F4EC85FD8541
:1010B00093FD859193FF8191FD87EC87882309F04B
:1010C000B8CF982F9554933018F09052933038F44D
:1010D00024E030E0A20EB31E3FE339830FC0833615
:1010E00031F0833781F0833509F05AC022C0F50111
:1010F0008081898322E030E0A20EB31E21E0C22E5F
:10110000D12C420114C092E0292E312C2A0C3B1C18
:10111000F5018080918016FF03C06F2D70E002C042
:101120006FEF7FEFC4010E94E4096C0151011F774A
:1011300015C082E0282E312C2A0C3B1CF501808042
:10114000918016FF03C06F2D70E002C06FEF7FEF3C
:10115000C4010E94D9096C011068510113FD1CC023
:1011600006C080E290E0B3010E94EF09EA948E2D60
:1011700090E0C816D906A8F30FC0F40117FD8591B9
:1011800017FF81914F0190E0B3010E94EF09E11038
:10119000EA940894C108D108C114D10471F7E7C0DA
:1011A000843611F0893651F5F50117FF07C08081AB
:1011B0009181A281B38124E030E008C080819181D7
:1011C000AA2797FDA095BA2F22E030E0A20EB31E09
:1011D000012F0F76B7FF08C0B095A0959095819527
:1011E0009F4FAF4FBF4F0068BC01CD01A2012AE065
:1011F00030E00E941B0AD82ED4183FC0853721F456
:101200001F7E2AE030E020C0197F8F36A9F080379A
:1012100020F4883509F0AEC00BC0803721F0883744
:1012200009F0A8C001C0106114FF09C0146007C014
:1012300014FF08C0166006C028E030E005C020E1B9
:1012400030E002C020E132E0F50117FF07C0608105
:1012500071818281938144E050E006C06081718198
:1012600080E090E042E050E0A40EB51EA2010E9492
:101270001B0AD82ED418012F0F7706FF09C00E7F46
:10128000DF1430F404FF06C002FD04C00F7E02C06C
:101290001D2D01C01F2D802F90E004FF0CC0FE010A
:1012A000ED0DF11D2081203311F4097E09C002FFEC
:1012B00006C01E5F05C086789070009709F01F5F1A
:1012C000802E992403FD12C000FF0DC0FD2C1E15B9
:1012D00050F4FE0CF11A1E2D06C080E290E0B3011E
:1012E0000E94EF091F5F1E15C0F304C01E1510F405
:1012F000E11A01C0EE2484FE0FC080E390E0B30148
:101300000E94EF0982FE1FC081FE03C088E590E0C5
:1013100010C088E790E00DC0C401867890700097F7
:1013200091F081FC02C080E201C08BE207FD8DE2FA
:1013300090E0B3010E94EF0906C080E390E0B301A2
:101340000E94EF09FA94DF14C0F3DA94F201ED0D74
:10135000F11D808190E0B3010E94EF09DD20A9F723
:1013600006C080E290E0B3010E94EF09EA94EE200B
:10137000C1F740CEF3018681978102C08FEF9FEFC6
:101380002D960FB6F894DEBF0FBECDBFDF91CF9183
:101390001F910F91FF90EF90DF90CF90BF90AF9093
:1013A0009F908F907F906F905F904F903F902F9085
:1013B0000895FC010590615070400110D8F78095A8
:1013C00090958E0F9F1F0895FC0161507040019011
:1013D0000110D8F7809590958E0F9F1F08950F9359
:1013E0001F93CF93DF938C01EB018B8181FF1BC097
:1013F00082FF0DC02E813F818C819D812817390786
:1014000064F4E881F9810193F983E88306C0E885F3
:10141000F985802F1995009731F48E819F8101966F
:101420009F838E8302C00FEF1FEFC801DF91CF9122
:101430001F910F910895FA01AA27283051F1203108
:1014400081F1E8946F936E7F6E5F7F4F8F4F9F4F58
:10145000AF4FB1E03ED0B4E03CD0670F781F891F9A
:101460009A1FA11D680F791F8A1F911DA11D6A0F68
:10147000711D811D911DA11D20D009F468943F911B
:101480002AE0269F11243019305D3193DEF6CF011A
:101490000895462F4770405D4193B3E00FD0C9F7E0
:1014A000F6CF462F4F70405D4A3318F0495D31FD4D
:1014B0004052419302D0A9F7EACFB4E0A6959795A0
:1014C000879577956795BA95C9F700976105710576
:1014D00008959B01AC010A2E0694579547953795C0
:1014E0002795BA95C9F7620F731F841F951FA01D1A
:0614F0000895F894FFCFFF
:0C14F60025640A000A202564200A20005A
:00000001FF
