:100000000C942A000C9447000C9447000C94470071
:100010000C9402030C9447000C9447000C94470086
:100020000C9447000C9447000C9447000C94C702B2
:100030000C9447000C9447000C9447000C94470024
:100040000C9447000C9447000C94C5010C94470095
:100050000C94470011241FBECFE5D4E0DEBFCDBF16
:1000600010E0A0E6B0E0EEE1FAE002C005900D92EB
:10007000AC38B107D9F710E0ACE8B0E001C01D9290
:10008000A53BB107E1F70E945D040C940D050C94AB
:100090000000C39AC498089516B880E287B980E832
:1000A00088B986E886B9089583E397E00197F1F768
:1000B000A898A99880E385BBAA9AEFEFF3E231975D
:1000C000F1F700C00000AA98E3E3F7E03197F1F7F9
:1000D000A898A99885BBAA9AEFEFF3E23197F1F7B8
:1000E00000C00000AA98E3E3F7E03197F1F7A89881
:1000F000A99885BBAA9A8FEF93E20197F1F700C008
:100100000000AA98E3E3F7E03197F1F7A898A998DF
:1001100080E285BBAA9A8FEF93E20197F1F700C0C6
:100120000000AA98089595B39F7095BB95B3282FAA
:10013000207F922B95BBA898A998AA9AEFEFF3E29B
:100140003197F1F700C00000AA9895B39F7095BB56
:1001500095B38295807F892B85BBA898A998AA9A88
:100160008FEF93E20197F1F700C00000AA9808957D
:1001700083E397E00197F1F788E20E94930081E022
:100180000E94930086E00E9493008EE00E949300FC
:1001900080E80E949300089595B39F7095BB95B336
:1001A000282F207F922B95BBA89AA998AA9AEFEFA7
:1001B000F3E23197F1F700C00000AA9895B39F7061
:1001C00095BB95B38295807F892B85BBA89AA9980A
:1001D000AA9A8FEF93E20197F1F700C00000AA9866
:1001E000089580E80E9493000895CF93DF93EC0177
:1001F0008881882331F021960E94CC008991882340
:10020000D9F7DF91CF910895823079F0833018F4D7
:100210008130C9F405C0833069F08430A1F40FC087
:10022000862F81580E9493000895862F81540E9442
:1002300093000895862F8D560E9493000895862F6F
:100240008D520E94930008950F931F93CF93DF93D5
:100250008A01E901882311F0662319F40E94F10054
:1002600002C00E940401C530D10571F4C80160E1EB
:1002700077E20E94F904CB01C09690939E00809390
:100280009D000E94CC0003C0C430D105B9F4C80160
:1002900068EE73E00E94F904CB017093A0006093B4
:1002A0009F006AE070E00E94F904C0969093B40049
:1002B0008093B3000E94CC0081E001C080E0C33095
:1002C000D10511F08130B1F4C80164E670E00E94FC
:1002D000F904CB017093A00060939F006AE070E086
:1002E0000E94F904C0969093B0008093AF000E94E2
:1002F000CC0081E0C230D10511F08130B1F42AE0A8
:1003000030E0C801B9010E94F904CB017093A0004C
:1003100060939F00B9010E94F904C0969093AC00CD
:100320008093AB000E94CC0081E0C130D10511F078
:10033000813061F4C8016AE070E00E94F904C0965F
:100340009093B2008093B1000E94CC00C630D105DA
:100350001CF085E40E94CC00DF91CF911F910F919A
:1003600008958E9A82B312BA08950E94B101089539
:10037000969A8BE78A95F1F796980895F8940E94DB
:10038000B5010E944C00789408951F920F920FB609
:100390000F9211248F939F93AF93BF9380918F00FF
:1003A00090919000A0919100B09192000196A11DB2
:1003B000B11D80938F0090939000A0939100B09313
:1003C0009200BF91AF919F918F910F900FBE0F90B0
:1003D0001F901895F894BA98C29A80E28BBF84B7A0
:1003E0008F7B84BF789408958BB78F7D8BBF0895E2
:1003F00088B3877E88BB0895C49AC39A0895C49A27
:10040000C39808950E94FF0110928F0010929000EF
:1004100010929100109292008FEF9FE7A4E081501C
:100420009040A040E1F700C0000080918F009091C3
:100430009000A0919100B0919200809399009093C8
:100440009A00A0939B00B0939C000E94490081E019
:1004500061E00E9404018FEF9FE7A6E18150904088
:10046000A040E1F700C0000081E00E9493000895E1
:100470000E94F80110928F0010929000109291004B
:10048000109292008FEF9FE7A4E081509040A0402F
:10049000E1F700C0000080918F0090919000A09142
:1004A0009100B09192008093A5009093A600A09334
:1004B000A700B093A8000E94490081E061E00E947B
:1004C00004018FEF9FE7A6E181509040A040E1F743
:1004D00000C0000081E00E94930008950E94FC018A
:1004E00010928F0010929000109291001092920042
:1004F00081E090E090939600809395008FEF9FE7C6
:10050000A4E081509040A040E1F700C0000080913D
:100510008F0090919000A0919100B09192008093F3
:10052000A1009093A200A093A300B093A4000E9406
:10053000490081E061E00E9404018FEF9FE7A6E19E
:1005400081509040A040E1F700C0000081E00E948F
:1005500093008FEF9FE9A5E081509040A040E1F724
:1005600000C00000089587B38B6187BBC09AC19813
:100570000895A39AAB9808950E94B902089583B391
:10058000886085BB089583B3877F85BB08951F92DC
:100590000F920FB60F9211242F933F934F935F93B7
:1005A0006F937F938F939F93AF93BF93EF93FF933B
:1005B0000E94C3028CB1FF91EF91BF91AF919F91C7
:1005C0008F917F916F915F914F913F912F910F90FC
:1005D0000FBE0F901F9018951AB81BB886E880BD03
:1005E0008FE289B910BC88E98AB908955D9BFECF76
:1005F000805D8CB90895F8940E94BC020E94EC02C0
:10060000789408951F920F920FB60F9211248F9332
:100610008FE684BD8F910F900FBE0F901F9018959D
:10062000F89485B58F6685BD89B7806489BFF894D5
:100630008F9A8FE684BD7894089588E783BD89E911
:1006400099E5A1E081509040A040E1F700008AE7E1
:1006500083BD8FEF9FE3ABE081509040A040E1F776
:1006600000C00000089584B3876F84BB85B3807891
:1006700085BB08951ABA1BBA089587B38F6087BBEC
:1006800088B3807F88BB81B3806381BB82B3806382
:1006900082BB08950E9433030E943A030E943D03E7
:1006A00008951EBC8FEF8DBD91E09CBD1BBC8ABD23
:1006B00019BC88BD17BC86BD81EA8FBD8DE08EBD9B
:1006C00008958770806287B9369A349BFECF85B1D2
:1006D000349A0895CF93DF93D82FC62F842F0E948A
:1006E0006103482F8093A9008D2F6C2F50E023E0E9
:1006F00030E00E942401DF91CF91089598B3907F5C
:100700008F70982B98BB089586E00E947E03089511
:1007100089E00E947E03089585E00E947E0308958B
:100720008AE00E947E03089584E00E947E0308957B
:1007300082E00E947E03089581E00E947E03089576
:1007400088E00E947E03089580E00E947E03089561
:100750008FE00E947E0308951BBC8ABD19BC68BD52
:100760000895F8940E944A030E94B5010E94FB027A
:100770000E94BE010E9451030E944C000E9410037F
:100780007894089518BA80E060E00E94AC030E945B
:10079000EA010E94B3020E94380289E999E5A1E0CA
:1007A00081509040A040E1F700000E946E0289E96C
:1007B00099E5A1E081509040A040E1F700008CE372
:1007C00090E00E94020289E999E5A1E08150904001
:1007D000A040E1F700004091A5005091A600609173
:1007E000A7007091A8008091A1009091A200A09113
:1007F000A300B091A40084179507A607B707F8F4E3
:100800004091A5005091A6006091A7007091A800AA
:100810008091990090919A00A0919B00B0919C00CA
:1008200084179507A607B70728F480E690E00E9492
:10083000F50023C08AE690E00E94F5001EC04091BA
:10084000A1005091A2006091A3007091A40080913A
:10085000990090919A00A0919B00B0919C00841700
:100860009507A607B70728F485E790E00E94F500F2
:1008700004C081E890E00E94F5000E94F40187B373
:100880008F6087BB88B3807F88BB0E941D0382E393
:100890006DE20E94AC030E9484038FEF9FE7A6E104
:1008A00081509040A040E1F700C0000081E090E05E
:1008B000909394008093930008950E94B1030E9446
:1008C00054000E94B8000E94B8018FEF9FE5A3E09A
:1008D00081509040A040E1F700C0000083E00E94FA
:1008E000610380938E0084E00E94610380938D00F9
:1008F00085E00E94610380938C0081E00E94930058
:1009000087E00E946103880F8093AA0081E061E084
:1009100043E00E946A0381E065E044E00E946A03CC
:1009200081E069E045E00E946A0380918E008D308D
:10093000E8F490918D009C30C8F090918C009D302F
:10094000A8F482E36DE20E94AC030E9484038091CC
:10095000AA00853B08F4B7CF809193009091940052
:10096000009709F0B0CF0E94C203ADCF8C30C8F021
:1009700090918C009C3070F58EE160E00E94AC0399
:100980000E949C038091AA00853B08F49CCF809133
:10099000930090919400009709F095CF0E94C203B4
:1009A00092CF90918C009C30A8F080E06EE10E9484
:1009B000AC030E94A0038091AA00853B08F483CF7A
:1009C0008091930090919400009709F07CCF0E9451
:1009D000C20379CF803108F476CF80918C008031CA
:1009E00008F471CF10929400109293000E94A40317
:1009F0006ACFAA1BBB1B51E107C0AA1FBB1FA617CA
:100A0000B70710F0A61BB70B881F991F5A95A9F7B7
:0E0A100080959095BC01CD010895F894FFCF1C
:100A1E0072656420636F6C6F7200626C75655F63E4
:100A2E006F6C6F7200677265656E20636F6C6F72AC
:0C0A3E0000626C756520636F6C6F7200C5
:00000001FF
