:100000000C942A000C9447000C9447000C94470071
:100010000C9447000C9447000C9447000C94470044
:100020000C9447000C9447000C9447000C940A056C
:100030000C9447000C9447000C9447000C94470024
:100040000C9447000C9447000C9447000C94470014
:100050000C94470011241FBECFE5D4E0DEBFCDBF16
:1000600010E0A0E6B0E0E6ECF2E102C005900D92EF
:10007000A236B107D9F711E0A2E6B0E001C01D92A7
:10008000AA31B107E1F70E94B9050C9461090C94FB
:1000900000000F931F93CF93DF93FB0127E030E025
:1000A000B9010E944E098B01EC01CF01B9010E94F8
:1000B0004E09061B170B10937F0000937E009E01D4
:1000C0002F5F3F4F281B390B1AF4309521953F4F76
:1000D0003093EB002093EA002197C81BD90B1AF448
:1000E000D095C195DF4FD093E700C093E600DF9134
:1000F000CF911F910F910895EF92FF920F931F934D
:10010000CF93DF939C017B01EA01FC013796EE0F50
:10011000FF1FE40FF51F808191818336910559F40B
:10012000CB0101978230910548F42A3231054CF019
:1001300000E010E008C000E010E005C000E010E0C2
:1001400002C004E010E0F9013197EE0FFF1FEC0F41
:10015000FD1F808191818336910549F4C90167E0D3
:1001600070E00E944E09009711F0085F1F4FF901DF
:100170003196EE0FFF1FEC0FFD1F808191818336BA
:10018000910551F4C901069767E070E00E944E099D
:10019000009711F00E5F1F4FC9010797880F991F35
:1001A000C80FD91F888199818336910569F484E04D
:1001B000E816F10421F082E0E816F10429F4273072
:1001C000310514F00F5F1F4F802F912FDF91CF91DA
:1001D0001F910F91FF90EF9008954F925F926F9251
:1001E0007F928F929F92AF92BF92CF92DF92EF92C7
:1001F000FF920F931F93CF93DF93CDB7DEB7C25615
:10020000D0400FB6F894DEBF0FBECDBF7C01C62E26
:10021000D72E10927B0010927A0080917A009091F4
:100220007B00813391056CF583E690E042E850E075
:10023000E0917A00F0917B00EE0FFF1F21E030E0AB
:100240002C0F3D1FE20FF31F91838083E0917A0012
:10025000F0917B00EE0FFF1FE40FF51F9183808369
:1002600020917A0030917B002F5F3F4F30937B00CD
:1002700020937A0020917A0030917B002133310560
:10028000BCF210927B0010927A00E0917A00F0911B
:100290007B00EE0FFF1FEE57FF4FC082D18280918F
:1002A0007A0090917B00019690937B0080937A0076
:1002B0000F2EF9E46F2EF0E07F2EF02D8C2D9D2D6A
:1002C000B701F30109950C2D1D2DCC24DD240F2E33
:1002D000F2E8AF2EF0E0BF2EF02D8824992483940D
:1002E0004424552445C0C801B701F301099531E004
:1002F000C316D104E9F580917E0090917F000097AC
:10030000B1F18091EA009091EB002091E6003091EC
:10031000E700821793071CF40F5F1F4F05C02817D3
:10032000390714F401501040C8010797E816F90680
:1003300031F0C8010796E816F90621F402C06201FF
:1003400001C0620180917A0090917B00880F991F13
:100350008A0D9B1DFC011183008380917A0090918E
:100360007B00019690937B0080937A0001C064012A
:100370000E151F0509F45BC1C701801B910B1816F0
:1003800019060CF045C020917E0030917F002115A8
:100390003105F1F1C801B401AE014F5F5F4F0E941A
:1003A0007C008230910519F40F5F1F4F1CC088300C
:1003B000910519F40150104016C08A30910589F456
:1003C0008091EA009091EB002091E6003091E700E7
:1003D000821793071CF40F5F1F4F05C00150104098
:1003E00002C0095F1F4F80917A0090917B00880FB7
:1003F000991F8A0D9B1DFC011183008380917A0057
:1004000090917B00019690937B0080937A006BCF54
:1004100099230CF046C080917E0090917F00009758
:1004200009F43FC0C80164E070E0AE014F5F5F4F68
:100430000E947C008230910519F40F5F1F4F1CC091
:100440008830910519F40150104016C08A3091058A
:1004500089F48091EA009091EB002091E6003091C0
:10046000E700821793071CF40F5F1F4F05C0015070
:10047000104002C00750104080917A0090917B009C
:10048000880F991F8A0D9B1DFC01118300838091A9
:100490007A0090917B00019690937B0080937A0084
:1004A00022CFC80162E070E0AE014F5F5F4F0E9453
:1004B0007C008F30910589F48091EA009091EB00E7
:1004C0002091E6003091E700821793071CF40F5F3C
:1004D0001F4F93C00150104090C08B30910519F010
:1004E0008E309105A9F48091EA009091EB00209163
:1004F000E6003091E700821793071CF40F5F1F4F4F
:100500007CC0281739070CF078C00150104075C026
:100510008D309105A9F48091EA009091EB00209133
:10052000E6003091E700821793071CF40750104053
:1005300064C0281739070CF060C0015010405DC03E
:1005400087309105A9F48091EA009091EB00209109
:10055000E6003091E700821793071CF40F5F1F4FEE
:100560004CC0281739070CF048C00750104045C050
:100570008130910519F08530910519F4075010402C
:100580003CC08C30910519F086309105B9F480910A
:10059000E6009091E7002091EA003091EB002817E7
:1005A00039071CF40F5F1F4F28C0821793071CF4F4
:1005B0000150104022C0095F1F4F1FC089309105B4
:1005C00019F083309105B9F48091EA009091EB0025
:1005D0002091E6003091E700821793071CF40F5F2B
:1005E0001F4F0BC0281739071CF40150104005C0DD
:1005F0000750104002C0095F1F4F80917A00909110
:100600007B00880F991F8A0D9B1DFC0111830083BD
:1006100080917A0090917B00019690937B0080936B
:100620007A00C801B701F3010995640164CE809195
:100630007A0090917B00CE59DF4F0FB6F894DEBF61
:100640000FBECDBFDF91CF911F910F91FF90EF9023
:10065000DF90CF90BF90AF909F908F907F906F90E2
:100660005F904F90089520916C0030916D00F901DA
:10067000EE0FFF1FEE57FF4F918380832F5F3F4F99
:1006800030936D0020936C000895E2E8F0E024EED2
:1006900030E083E690E081939193E217F307D9F776
:1006A00083E090E00E94330384E090E00E943303F3
:1006B00085E090E00E94330386E090E00E943303DF
:1006C000089583E397E00197F1F7A898A99880E34C
:1006D00085BBAA9AEFEFF3E23197F1F700C0000073
:1006E000AA98E3E3F7E03197F1F7A898A99885BBBA
:1006F000AA9AEFEFF3E23197F1F700C00000AA9851
:10070000E3E3F7E03197F1F7A898A99885BBAA9A97
:100710008FEF93E20197F1F700C00000AA98E3E39E
:10072000F7E03197F1F7A898A99880E285BBAA9ADB
:100730008FEF93E20197F1F700C00000AA980895A7
:1007400095B39F7095BB95B3282F207F922B95BBB7
:10075000A898A998AA9AEFEFF3E23197F1F700C0B1
:100760000000AA9895B39F7095BB95B38295807F42
:10077000892B85BBA898A998AA9A8FEF93E2019735
:10078000F1F700C00000AA98089583E397E001976D
:10079000F1F788E20E94A00381E00E94A00386E0B6
:1007A0000E94A0038EE00E94A00380E80E94A003A4
:1007B000089595B39F7095BB95B3282F207F922BFA
:1007C00095BBA89AA998AA9AEFEFF3E23197F1F7AF
:1007D00000C00000AA9895B39F7095BB95B3829511
:1007E000807F892B85BBA89AA998AA9A8FEF93E25C
:1007F0000197F1F700C00000AA98089580E80E94D0
:10080000A0030895CF93DF93EC018881882331F012
:1008100021960E94D90389918823D9F7DF91CF913E
:100820000895823079F0833018F48130C9F405C01E
:10083000833069F08430A1F40FC0862F81580E9464
:10084000A0030895862F81540E94A0030895862F47
:100850008D560E94A0030895862F8D520E94A003FA
:1008600008950F931F93CF93DF938A01E9018823A3
:1008700011F0662319F40E94FE0302C00E941104C5
:10088000C530D10571F4C80160E177E20E943A09F0
:10089000CB01C09690936F0080936E000E94D903A5
:1008A00003C0C430D105B9F4C80168EE73E00E94FA
:1008B0003A09CB0170937D0060937C006AE070E0A0
:1008C0000E943A09C09690931701809316010E94E6
:1008D000D90381E001C080E0C330D10511F081303F
:1008E000B1F4C80164E670E00E943A09CB0170934C
:1008F0007D0060937C006AE070E00E943A09C09637
:100900009093E9008093E8000E94D90381E0C2300F
:10091000D10511F08130B1F42AE030E0C801B9010D
:100920000E943A09CB0170937D0060937C00B9016D
:100930000E943A09C0969093E5008093E4000E94DB
:10094000D90381E0C130D10511F0813061F4C801D3
:100950006AE070E00E943A09C09690931501809376
:1009600014010E94D903C630D1051CF085E40E9411
:10097000D903DF91CF911F910F91089587B38F60B5
:1009800087BB88B3807F88BB81B3806381BB82B320
:10099000806382BB08950E94BE04089598B3907F3F
:1009A0008F70982B98BB089586E00E94CE0408951E
:1009B00089E00E94CE04089585E00E94CE04089547
:1009C0008AE00E94CE04089584E00E94CE04089537
:1009D00082E00E94CE04089581E00E94CE04089532
:1009E00088E00E94CE04089580E00E94CE0408951D
:1009F0008FE00E94CE040895A39AAB9808950E94B8
:100A0000FC04089583B3886085BB089583B3877F12
:100A100085BB08951F920F920FB60F9211240F936A
:100A20001F932F933F934F935F936F937F938F9376
:100A30009F93AF93BF93CF93DF93EF93FF930CB14B
:100A400010E0E801E097E0916800F0916900EE0F96
:100A5000FF1FE059FF4FD183C083809168009091C0
:100A600069000196909369008093680081E06AE0D4
:100A7000AE0124E030E00E943104C8018459904066
:100A80008233910580F480916A0090916B00FC01A3
:100A9000EE0FFF1FE050FF4FD183C083019690936C
:100AA0006B0080936A00CA5FD040C233D10538F42E
:100AB0000A52114010931901009318010CC0085FED
:100AC0001040109381000093800081E090E09093AB
:100AD000670080936600FF91EF91DF91CF91BF9106
:100AE000AF919F918F917F916F915F914F913F91C6
:100AF0002F911F910F910F900FBE0F901F9018957F
:100B00001AB81BB886E880BD8FE289B910BC88E9A5
:100B10008AB90895CF93DF93EC0181E062E0AE01E2
:100B200024E030E00E943104AE01405D5F4F82E07E
:100B300062E024E030E00E9431045D9BFECFC05DA6
:100B4000CCB98FEF9FE7A6E181509040A040E1F73C
:100B500000C00000DF91CF91089584B3876F84BBFC
:100B600085B3807885BB0895F8940E9480057894B9
:100B700008950E94B4050E94AD050E9461030E9481
:100B8000C503109269001092680040E051E083E6CE
:100B900090E06CEE70E01EC0E0916800F09169009A
:100BA000EE0FFF1FE40FF51F91838083E091680033
:100BB000F0916900EE0FFF1FE60FF71F918380830E
:100BC00020916800309169002F5F3F4F309369009A
:100BD0002093680020916800309169002A30310527
:100BE000DCF28FEF9FE7A6E181509040A040E1F753
:100BF00000C000008BE190E00E948A0500E011E057
:100C0000EE24FF246894E2F8CCEED0E08FEF9FE76B
:100C1000A6E181509040A040E1F700C00000809123
:100C20006600909167008130910509F03FC00E94F5
:100C30007907809166009091670082309105B1F547
:100C400081E00E94A003409166005091670082E01D
:100C500062E022E030E00E94310410926B001092BA
:100C60006A00D8018D919C91119783369105F1F01E
:100C70000E948A050E940605109267001092660085
:100C800080916A0090916B00019690936B00809325
:100C90006A008530910554F4FC01EE0FFF1FE00F50
:100CA000F11F808191818336910511F78091640055
:100CB000909165008130910509F0A8CF0E947907D5
:100CC00080916600909167008230910509F09ECF77
:100CD00081E00E94A003409166005091670082E08D
:100CE00062E022E030E00E943104F0926700E0927E
:100CF000660010926B0010926A0088819981833699
:100D0000910509F483CF0E948A050E94060510927E
:100D100067001092660080916A0090916B000196C6
:100D200090936B0080936A00853091050CF06ECF34
:100D3000FC01EE0FFF1FEC0FFD1F808191818336B8
:100D4000910509F763CFAF92BF92CF92DF92EF92F6
:100D5000FF920F931F93CF93DF93CDB7DEB76097CA
:100D60000FB6F894DEBF0FBECDBF7C019A83898396
:100D700060918000709181000E94ED008C019A8743
:100D80008987C70107969C838B836091800070914F
:100D900081000E94ED005C019C878B87CC24DD24C0
:100DA0006894C3F8CE0CDF1CDE82CD826091800097
:100DB00070918100C6010E94ED00609180007091E9
:100DC0008100C6010E94ED006C019E878D87C701DE
:100DD000019698878F8360918000709181000E94B6
:100DE000ED00DC01A114B104C1F0C114D104C1F0C3
:100DF0000097C9F001151105C9F0A501BC019601C4
:100E000081E090E0FC018417950791F08217930729
:100E100079F08617970791F40BC0E0E0F0E008C086
:100E2000E0E0F0E005C0E0E0F0E002C0E0E0F0E08B
:100E300089859A858E179F0741F41DC00150104087
:100E4000019601151105F1F6F3CF8B859C858E1760
:100E50009F0759F08D859E858E179F0749F0AE1725
:100E6000BF0761F4E3E0F0E00BC0E1E0F0E008C0B0
:100E7000E2E0F0E005C0E0E0F0E002C0E4E0F0E035
:100E80006091800070918100EE0FFF1FEC0FFD1F3D
:100E9000818192810E94ED0060960FB6F894DEBFCA
:100EA0000FBECDBFDF91CF911F910F91FF90EF90BB
:100EB000DF90CF90BF90AF9008959C0125563040B1
:100EC00023363105A8F48456904066E070E00E9415
:100ED0004E099C01CB01880F991F880F991F880F1D
:100EE000991F861B970B820F931F0E94A3060895DC
:100EF0000895AF92BF92CF92DF92EF92FF920F933D
:100F00001F93CF93DF93CDB7DEB7A8970FB6F894B2
:100F1000DEBF0FBECDBFFE013196DE015596CE017C
:100F20000D9623E630E0219331932D933D93E817FE
:100F3000F907C9F7809166009091670084309105A8
:100F4000A9F4ECEEF0E0A0E0B1E0CF010C96219125
:100F500031912D933D93E817F907C9F78091180156
:100F600090911901909369008093680010926B0032
:100F700010926A00809100019091010183369105E1
:100F800049F100E010E00F2EF0E0EF2EF1E0FF2E2F
:100F9000F02D0E945D07F801EE0FFF1F21E030E009
:100FA0002C0F3D1FE20FF31F9183808300916A0095
:100FB00010916B000F5F1F4F10936B0000936A003E
:100FC000F801EE0FFF1FEE0DFF1D8081918183362A
:100FD0009105F9F689819A818336910509F03BC123
:100FE0000CC08D939D932F5F3F4F2630310529F024
:100FF0008191919183369105A1F710926B00109227
:101000006A008D899E898336910509F010C158C008
:10101000A8014F5F5F4F4630510529F4509363009C
:10102000409362004DC0B8018A016701F701208139
:1010300031812336310569F1C8010196880F991F66
:10104000A5E1B0E0AC0FBD1FA80FB91FA801CB01EF
:10105000880F991F61E070E06C0F7D1F860F971F4E
:10106000BC016C5E7F4FFB0180819181281739079D
:1010700034F431832083FD013297918380834F5F65
:101080005F4F463051052CF42D913D9123363105AB
:1010900051F70630110529F4509363004093620024
:1010A0000FC022E030E0E20EF31EF6018081918154
:1010B0008336910509F0ACCF5093630040936200F2
:1010C00010926B0010926A004D895E89433651057B
:1010D00009F47CC08E01095E1F4FEE24FF2460E0FE
:1010E00070E00F2EF0E0AF2EF1E0BF2EF02D01C02A
:1010F0007B019B012F5F3F4F263031050CF047C02D
:10110000C901880F991FE1E0F0E0EC0FFD1F8E0F81
:101110009F1FFC018081918183369105C1F14817A1
:10112000590709F506C04817590739F5C22ED32EBD
:1011300002C0C22ED32ECB01880F991FD501A80F54
:10114000B91F4D915C911197F901EE0FFF1FEA0D48
:10115000FB1D8081918111969C938E9351834083D6
:101160002C2D3D2D14C0CB010296880F991FE1E074
:10117000F0E0EC0FFD1FE80FF91F2F5F3F4F263007
:10118000310529F0819191918336910561F6B7017E
:101190006F5F7F4F663071054CF070936B0060930A
:1011A0006A00309363002093620010C0F8014191FF
:1011B00051918F014336510509F09ACF70936B001E
:1011C00060936A0030936300209362008091660010
:1011D000909167008430910599F4E0E0F1E0ACEE85
:1011E000B0E0CF010C96219131912D933D93E817FA
:1011F000F907C9F786E090E090936B0080936A004E
:1012000082E090E09093670080936600A8960FB606
:10121000F894DEBF0FBECDBFDF91CF911F910F912C
:10122000FF90EF90DF90CF90BF90AF90089581E056
:1012300090E090936300809362000F2EF7E1EF2E11
:10124000FF24F02DEC0EFD1E41E050E060E070E068
:1012500001E010E0EACE9E8B8D8B81E090E09093D0
:101260006B0080936A00FE013396DE01579621E001
:1012700030E0BECEAA1BBB1B51E107C0AA1FBB1F9B
:10128000A617B70710F0A61BB70B881F991F5A9512
:10129000A9F780959095BC01CD01089597FB092E83
:1012A00007260AD077FD04D0E5DF06D000201AF427
:1012B000709561957F4F0895F6F7909581959F4FB2
:0612C0000895F894FFCF31
:0212C600000026
:00000001FF
