:100000000C942A000C9447000C9447000C94470071
:100010000C9447000C9447000C9447000C94470044
:100020000C9447000C9447000C9447000C94470034
:100030000C9447000C9447000C9447000C94470024
:100040000C9447000C9447000C94A9010C944700B1
:100050000C94470011241FBECFE5D4E0DEBFCDBF16
:1000600010E0A0E6B0E0EEE6F6E002C005900D92EA
:10007000A438B107D9F710E0A4E8B0E001C01D92A0
:10008000A43AB107E1F70E94F7020C9435030C94EF
:100090000000C39AC498089583E397E00197F1F7AD
:1000A000A898A99880E385BBAA9AEFEFF3E231976D
:1000B000F1F700C00000AA98E3E3F7E03197F1F709
:1000C000A898A99885BBAA9AEFEFF3E23197F1F7C8
:1000D00000C00000AA98E3E3F7E03197F1F7A89891
:1000E000A99885BBAA9A8FEF93E20197F1F700C018
:1000F0000000AA98E3E3F7E03197F1F7A898A998F0
:1001000080E285BBAA9A8FEF93E20197F1F700C0D6
:100110000000AA98089595B39F7095BB95B3282FBA
:10012000207F922B95BBA898A998AA9AEFEFF3E2AB
:100130003197F1F700C00000AA9895B39F7095BB66
:1001400095B38295807F892B85BBA898A998AA9A98
:100150008FEF93E20197F1F700C00000AA9808958D
:1001600083E397E00197F1F788E20E948B0081E03A
:100170000E948B0086E00E948B008EE00E948B0024
:1001800080E80E948B00089595B39F7095BB95B34E
:10019000282F207F922B95BBA89AA998AA9AEFEFB7
:1001A000F3E23197F1F700C00000AA9895B39F7071
:1001B00095BB95B38295807F892B85BBA89AA9981A
:1001C000AA9A8FEF93E20197F1F700C00000AA9876
:1001D000089580E80E948B000895CF93DF93EC018F
:1001E0008881882331F021960E94C4008991882358
:1001F000D9F7DF91CF910895823079F0833018F4E8
:100200008130C9F405C0833069F08430A1F40FC097
:10021000862F81580E948B000895862F81540E945A
:100220008B000895862F8D560E948B000895862F8F
:100230008D520E948B0008950F931F93CF93DF93ED
:100240008A01E901882311F0662319F40E94E9006C
:1002500002C00E94FC00C530D10571F4C80160E104
:1002600077E20E942103CB01C09690938F00809388
:100270008E000E94C40003C0C430D105B9F4C80187
:1002800068EE73E00E942103CB01709391006093AC
:1002900090006AE070E00E942103C0969093A30052
:1002A0008093A2000E94C40081E001C080E0C330BE
:1002B000D10511F08130B1F4C80164E670E00E940C
:1002C0002103CB0170939100609390006AE070E08D
:1002D0000E942103C09690939F0080939E000E94ED
:1002E000C40081E0C230D10511F08130B1F42AE0C0
:1002F00030E0C801B9010E942103CB017093910045
:1003000060939000B9010E942103C09690939D00D4
:1003100080939C000E94C40081E0C130D10511F09F
:10032000813061F4C8016AE070E00E942103C09648
:100330009093A1008093A0000E94C400C630D10514
:100340001CF085E40E94C400DF91CF911F910F91B2
:1003500008951F920F920FB60F9211248F939F93BF
:10036000AF93BF938091880090918900813091056F
:1003700099F48091840090918500A0918600B091BD
:1003800087000196A11DB11D809384009093850084
:10039000A0938600B0938700BF91AF919F918F91FA
:1003A0000F900FBE0F901F901895F894BA98C29AAC
:1003B00080E28BBF84B78F7B84BF7894089588B325
:1003C000877E88BB0895C49AC39A0895C49AC39837
:1003D00008950F931F930E94E601109284001092DB
:1003E000850010928600109287008FEF9FE7A4E0AF
:1003F00081509040A040E1F700C00000809184004F
:1004000090918500A0918600B091870080938A002A
:1004100090938B00A0938C00B0938D000E944900B4
:1004200081E061E00E94FC0080E690E00E94ED0027
:1004300000918A0010918B0020918C0030918D00EA
:1004400082E061E0A80125E030E00E941C018FEF0E
:100450009FE7A6E181509040A040E1F700C0000076
:1004600081E00E948B0010928900109288001F91F9
:100470000F9108950F931F930E94DF011092840043
:100480001092850010928600109287008FEF9FE7F0
:10049000A4E081509040A040E1F700C000008091AE
:1004A000840090918500A0918600B0918700809390
:1004B000960090939700A0939800B09399000E94A3
:1004C000490081E061E00E94FC008CE690E00E941F
:1004D000ED000091960010919700209198003091C6
:1004E000990082E061E0A80125E030E00E941C0153
:1004F0008FEF9FE7A6E181509040A040E1F700C058
:10050000000081E00E948B001F910F9108950F93CE
:100510001F930E94E30110928400109285001092B4
:1005200086001092870081E090E09093890080938C
:1005300088008FEF9FE7A4E081509040A040E1F752
:1005400000C000008091840090918500A0918600F9
:10055000B09187008093920090939300A0939400B1
:10056000B09395000E94490081E061E00E94FC0088
:1005700087E790E00E94ED000091920010919300B7
:10058000209194003091950082E061E0A80125E07F
:1005900030E00E941C018FEF9FE7A6E18150904060
:1005A000A040E1F700C0000081E00E948B008FEFC7
:1005B0009FE9A5E081509040A040E1F700C0000015
:1005C0001F910F91089587B38B6187BBC09AC19823
:1005D000089584B3876F84BB85B3807885BB089505
:1005E0000E94D5010E94E3020E94E90208950E9440
:1005F000F0020E944C000E94B0000E9449000E943C
:100600003A028FEF9FE9A5E081509040A040E1F7CA
:1006100000C000000E94E9018FEF9FE9A5E0815032
:100620009040A040E1F700C000000E9487028FEFD9
:100630009FE9A5E081509040A040E1F700C0000094
:10064000DCCFAA1BBB1B51E107C0AA1FBB1FA6170B
:10065000B70710F0A61BB70B881F991F5A95A9F76B
:0E06600080959095BC01CD010895F894FFCFD0
:10066E00426C75652050756C73657300526564201D
:10067E0050756C73657300477265656E2050756CAE
:04068E00736573001D
:00000001FF
