:100000000C9472000C9493000C9493000C94930045
:100010000C9493000C9493000C9493000C94930014
:100020000C9493000C9493000C9493000C94930004
:100030000C9493000C9493000C9493000C949300F4
:100040000C9493000C9493000C9493000C949300E4
:100050000C9493000C9493000C9493000C949300D4
:100060000C9493000C9493000C9493000C949300C4
:100070000C9493000C9493000C9493000C949300B4
:100080000C9493000C9493000C9493000C949300A4
:100090000C9493000C9493000C9493000C94930094
:1000A0000C9493000C9493000C9493000C94930084
:1000B0000C9493000C9493000C9493000C94930074
:1000C0000C9493000C9493000C9493000C94930064
:1000D0000C9493000C9493000C9493000C94930054
:1000E0000C94930011241FBECFEFD1E2DEBFCDBF31
:1000F00000E00CBF12E0A0E0B2E0ECE0F8E000E0CD
:100100000BBF02C007900D92A030B107D9F712E0E3
:10011000A0E0B2E001C01D92A431B107E1F70E9456
:10012000E9030C9404040C94000010BA11BA109264
:10013000070110920801089587B1876F87B988B1C8
:10014000807888B9089586E69EE00197F1F700006F
:100150004098419880E388B9429AEFEFF7E43197ED
:10016000F1F700C000004298E6E6FEE03197F1F7B3
:1001700000004098419888B9429AEFEFF7E4319730
:10018000F1F700C000004298E6E6FEE03197F1F793
:1001900000004098419888B9429A8FEF97E4019700
:1001A000F1F700C000004298E6E6FEE03197F1F773
:1001B00000004098419880E288B9429A8FEF97E416
:1001C0000197F1F700C000004298089598B19F7020
:1001D00098B998B1282F207F922B98B940984198D0
:1001E000429AEFEFF7E43197F1F700C00000429830
:1001F00098B19F7098B998B18295807F892B88B902
:1002000040984198429A8FEF97E40197F1F700C028
:100210000000429808950E94A30086E69EE00197A0
:10022000F1F7000088E20E94E60081E00E94E6000B
:1002300086E00E94E6008EE00E94E60080E80E94D0
:10024000E600089598B19F7098B998B1282F207F43
:10025000922B98B9409A4198429AEFEFF7E4319780
:10026000F1F700C00000429898B19F7098B998B11A
:100270008295807F892B88B9409A4198429A8FEF66
:1002800097E40197F1F700C000004298089580E8D4
:100290000E94E6000895CF93DF93EC0188818823C4
:1002A00031F021960E94220189918823D9F7DF91AC
:1002B000CF910895823079F0833018F48130C9F4F9
:1002C00005C0833069F08430A1F40FC0862F8158B7
:1002D0000E94E6000895862F81540E94E60008954A
:1002E000862F8D560E94E6000895862F8D520E941B
:1002F000E60008950F931F93CF93DF938A01E901DE
:10030000882311F0662319F40E94470102C00E945D
:100310005A01C530D10571F4C80160E177E20E944D
:10032000F003CB01C09690930602809305020E94D1
:10033000220103C0C430D105B9F4C80168EE73E0EE
:100340000E94F003CB0170930802609307026AE0F9
:1003500070E00E94F003C096909311028093100207
:100360000E94220181E001C080E0C330D10511F07C
:100370008130B1F4C80164E670E00E94F003CB0163
:1003800070930802609307026AE070E00E94F00335
:10039000C09690930D0280930C020E94220181E08E
:1003A000C230D10511F08130B1F42AE030E0C8014B
:1003B000B9010E94F003CB01709308026093070219
:1003C000B9010E94F003C09690930B0280930A0239
:1003D0000E94220181E0C130D10511F0813061F429
:1003E000C8016AE070E00E94F003C09690930F028B
:1003F00080930E020E942201C630D1051CF085E4D4
:100400000E942201DF91CF911F910F91089522B197
:1004100030E0207F30708F7090E0282B392B22B98C
:1004200008958093280160932A01089580E06EE684
:100430000E94110285E00E94070208958EE660E0A6
:100440000E9411028AE00E940702089584E664E691
:100450000E94110286E00E940702089581B18F6018
:1004600081B982B1807F82B9EAE0F1E08081886160
:100470008083EBE0F1E08081886180830895E1E290
:10048000F1E010828FEF8093850091E0909324013A
:10049000109229018093280110922B0180932A0148
:1004A00010922D0180932C0189EA809320018BE02A
:1004B0008083089580E06AE50E94110288E00E942E
:1004C000070208958AE560E00E94110281E00E941F
:1004D000070208958AE56AE50E94110289E00E94F8
:1004E0000702089580E06AE50E94110285E00E94FB
:1004F0000702089580E06AE50E94110285E00E94EB
:100500000702089580E00E94070208950E949C005F
:100510000E9495000E942E020895EAE7F0E0108202
:1005200010927B0080E280937C0080E880BF86E8A8
:1005300080830895883018F098E090937B0087704E
:10054000806280937C00EAE7F0E0808180648083B1
:10055000808184FFFDCF80917900EAE7F0E090810F
:100560009061908310927B000895CF93DF93D82FF2
:10057000C62F433071F483E00E949A02482F809383
:1005800003028D2F6C2F50E023E030E00E947A01AF
:100590001FC0423071F482E00E949A02482F80937B
:1005A00004028D2F6C2F50E023E030E00E947A018E
:1005B0000FC0413069F481E00E949A02482F809375
:1005C00009028D2F6C2F50E023E030E00E947A0169
:1005D000DF91CF910895CF93DF93C5EBD2E081E017
:1005E00090E061E070E041E050E0FE01199581E0AB
:1005F00090E065E070E042E050E0FE01199581E096
:1006000090E069E070E043E050E0FE01199583E07E
:100610000E949A028093020284E00E949A028093D0
:10062000010285E00E949A0280930002DF91CF913F
:10063000089548C00E94EB0280910102833209F4C0
:1006400041C080910202833298F48091000284328A
:1006500078F00E941E028FEF9FE7A4E08150904047
:10066000A040E1F700C0000080910102833251F107
:1006700080910202843278F080910002833258F433
:100680000E9416028FEF9FE7A4E081509040A040A7
:10069000E1F700C0000080910102843298F080915F
:1006A0000202833278F480910002833258F40E946F
:1006B00026028FEF9FE7A4E081509040A040E1F731
:1006C00000C0000080910002843208F4B3CF809112
:1006D0000202843208F4AECF08950E941E028FEF0A
:1006E0009FEBA1E281509040A040E1F700C00000E4
:1006F0000E94EB020E9419030E9482028FEF9FEB7F
:10070000A1E281509040A040E1F700C000000E94AB
:10071000EB0208950E9416028FEF9FEBA1E2815039
:100720009040A040E1F700C000000E94EB020E9450
:1007300019030E9482028FEF9FEBA1E2815090404B
:10074000A040E1F700C000000E94EB02089588E796
:1007500068E70E9411020E941E028FEF9FEBAAE23F
:1007600081509040A040E1F700C000000E94EB02E1
:100770000E9419030E9482028FEF9FEBA1E2815039
:100780009040A040E1F700C000000E94EB020895F5
:100790008AE56AE50E9411020E9426028FEF9FEB14
:1007A000A8E181509040A040E1F700C000000E9405
:1007B000EB020E9419030E9482028FEF9FE7AFE1D4
:1007C00081509040A040E1F700C000000E94EB0281
:1007D00008950E9486020E9419030E948202FBCFA4
:1007E000AA1BBB1B51E107C0AA1FBB1FA617B70757
:1007F00010F0A61BB70B881F991F5A95A9F7809573
:0C0800009095BC01CD010895F894FFCF45
:00000001FF
