:100000000C942A000C9447000C94A6010C94470011
:100010000C9447000C9447000C9447000C94470044
:100020000C9447000C9447000C9447000C94470034
:100030000C9447000C9447000C9447000C94470024
:100040000C9447000C9447000C9447000C94470014
:100050000C94470011241FBECFE5D4E0DEBFCDBF16
:1000600010E0A0E6B0E0E0E0F6E002C005900D92FE
:10007000A438B107D9F710E0A4E8B0E001C01D92A0
:10008000A63AB107E1F70E94D8020C94FE020C9444
:10009000000083E397E00197F1F7A898A99880E31F
:1000A00085BBAA9AEFEFF3E23197F1F700C00000A9
:1000B000AA98E3E3F7E03197F1F7A898A99885BBF0
:1000C000AA9AEFEFF3E23197F1F700C00000AA9887
:1000D000E3E3F7E03197F1F7A898A99885BBAA9ACE
:1000E0008FEF93E20197F1F700C00000AA98E3E3D5
:1000F000F7E03197F1F7A898A99880E285BBAA9A12
:100100008FEF93E20197F1F700C00000AA980895DD
:1001100095B39F7095BB95B3282F207F922B95BBED
:10012000A898A998AA9AEFEFF3E23197F1F700C0E7
:100130000000AA9895B39F7095BB95B38295807F78
:10014000892B85BBA898A998AA9A8FEF93E201976B
:10015000F1F700C00000AA98089583E397E00197A3
:10016000F1F788E20E94880081E00E94880086E022
:100170000E9488008EE00E94880080E80E9488002B
:10018000089595B39F7095BB95B3282F207F922B30
:1001900095BBA89AA998AA9AEFEFF3E23197F1F7E5
:1001A00000C00000AA9895B39F7095BB95B3829547
:1001B000807F892B85BBA89AA998AA9A8FEF93E292
:1001C0000197F1F700C00000AA98089580E80E9406
:1001D00088000895CF93DF93EC018881882331F064
:1001E00021960E94C10089918823D9F7DF91CF9190
:1001F0000895823079F0833018F48130C9F405C055
:10020000833069F08430A1F40FC0862F81580E949A
:1002100088000895862F81540E9488000895862FB3
:100220008D560E9488000895862F8D520E94880066
:1002300008950F931F93CF93DF938A01E9018823D9
:1002400011F0662319F40E94E60002C00E94F90032
:10025000C530D10571F4C80160E177E20E94EA027D
:10026000CB01C09690939100809390000E94C100B2
:1002700003C0C430D105B9F4C80168EE73E00E9430
:10028000EA02CB0170939300609392006AE070E001
:100290000E94EA02C0969093A5008093A4000E9459
:1002A000C10081E001C080E0C330D10511F0813090
:1002B000B1F4C80164E670E00E94EA02CB017093D9
:1002C0009300609392006AE070E00E94EA02C09698
:1002D0009093A1008093A0000E94C10081E0C230F1
:1002E000D10511F08130B1F42AE030E0C801B90144
:1002F0000E94EA02CB017093930060939200B901CF
:100300000E94EA02C09690939F0080939E000E94F4
:10031000C10081E0C130D10511F0813061F4C80124
:100320006AE070E00E94EA02C0969093A300809376
:10033000A2000E94C100C630D1051CF085E40E94D5
:10034000C100DF91CF911F910F9108951F920F92DD
:100350000FB60F9211248F939F93AF93BF93809109
:10036000880090918900A0918A00B0918B0001963D
:10037000A11DB11D8093880090938900A0938A00ED
:10038000B0938B00BF91AF919F918F910F900FBE53
:100390000F901F901895F8948B98939A80E88BBFD4
:1003A00085B7886085BF85B78B7F85BF78940895B2
:1003B00088B3877E88BB089588B3886188BB089519
:1003C000C49AC39808950F931F930E94E00110925E
:1003D00088001092890010928A0010928B008FEF93
:1003E0009FE7A4E081509040A040E1F700C00000EA
:1003F0008091880090918900A0918A00B0918B0033
:1004000080938C0090938D00A0938E00B0938F000A
:1004100081E061E00E94F90080E690E00E94EA003D
:1004200000918C0010918D0020918E0030918F00F2
:1004300082E061E0A80125E030E00E9419018FEF21
:100440009FE7A6E181509040A040E1F700C0000086
:1004500081E00E9488001F910F9108950F931F93D0
:100460000E94D801109288001092890010928A0090
:1004700010928B008FEF9FE7A4E081509040A04046
:10048000E1F700C000008091880090918900A09160
:100490008A00B0918B008093980090939900A0936C
:1004A0009A00B0939B0081E061E00E94F9008CE625
:1004B00090E00E94EA00009198001091990020912C
:1004C0009A0030919B0082E061E0A80125E030E0D5
:1004D0000E9419018FEF9FE7A6E181509040A04054
:1004E000E1F700C0000081E00E9488001F910F9199
:1004F00008950F931F930E94DC01109288001092C0
:10050000890010928A0010928B008FEF9FE7A4E081
:1005100081509040A040E1F700C000008091880029
:1005200090918900A0918A00B0918B0080939400F3
:1005300090939500A0939600B093970081E061E0BE
:100540000E94F90087E790E00E94EA000091940081
:1005500010919500209196003091970082E061E023
:10056000A80125E030E00E9419018FEF9FE7A6E186
:1005700081509040A040E1F700C0000081E00E945F
:1005800088001F910F91089587B38B6187BBC09A34
:10059000C198089584B3876F84BB85B3807885BB89
:1005A00008950E94CB010E94C4020E94CA020895CD
:1005B0000E94D1020E9449000E94AD000E942E02BA
:1005C0008FEF9FE7ADE081509040A040E1F700C081
:1005D0000000F4CFAA1BBB1B51E107C0AA1FBB1F21
:1005E000A617B70710F0A61BB70B881F991F5A95BF
:1005F000A9F780959095BC01CD010895F894FFCF9F
:10060000426C75652050756C73657300526564208B
:1006100050756C73657300477265656E2050756C1C
:04062000736573008B
:00000001FF
