:100000000C9472000C9493000C9493000C94930045
:100010000C9493000C9493000C9493000C94930014
:100020000C9493000C9493000C9493000C94930004
:100030000C9493000C9493000C9493000C949300F4
:100040000C9493000C9493000C9493000C949300E4
:100050000C9493000C9493000C9493000C949300D4
:100060000C9493000C9424050C9493000C9493002E
:100070000C9493000C9493000C9493000C949300B4
:100080000C9493000C9493000C9493000C949300A4
:100090000C9493000C9493000C9493000C94930094
:1000A0000C9493000C9493000C9493000C94930084
:1000B0000C9493000C9493000C9493000C94930074
:1000C0000C9493000C9493000C9493000C94930064
:1000D0000C9493000C9493000C9493000C94930054
:1000E0000C94930011241FBECFEFD1E2DEBFCDBF31
:1000F00000E00CBF12E0A0E0B2E0E4E7F9E200E0CB
:100100000BBF02C007900D92A230B107D9F713E0E0
:10011000A2E0B2E001C01D92AB34B107E1F70E944A
:10012000CE0E0C94B8140C9400000F931F93CF9331
:10013000DF93FB0127E030E0B9010E94A5148B0199
:10014000EC01CF01B9010E94A514061B170B1093F7
:10015000AA020093A9029E012F5F3F4F281B390B73
:100160001AF4309521953F4F30931C0320931B03C5
:100170002197C81BD90B1AF4D095C195DF4FD093A6
:100180001203C0931103DF91CF911F910F91089536
:100190008093280160932A01089592B1907F8F7017
:1001A000982B92B90895EF92FF920F931F93CF93DC
:1001B000DF939C017B01EA01FC013796EE0FFF1FE4
:1001C000E40FF51F808191818336910559F4CB01AD
:1001D00001978230910548F42A3231054CF000E055
:1001E00010E008C000E010E005C000E010E002C030
:1001F00004E010E0F9013197EE0FFF1FEC0FFD1F37
:10020000808191818336910549F4C90167E070E0EE
:100210000E94A514009711F0085F1F4FF901319655
:10022000EE0FFF1FEC0FFD1F80819181833691053A
:1002300051F4C901069767E070E00E94A514009789
:1002400011F00E5F1F4FC9010797880F991FC80F44
:10025000D91F888199818336910569F484E0E81675
:10026000F10421F082E0E816F10429F42730310589
:1002700014F00F5F1F4F802F912FDF91CF911F91AF
:100280000F91FF90EF9008952F923F924F925F92BF
:100290006F927F928F929F92AF92BF92CF92DF9296
:1002A000EF92FF920F931F93CF93DF936C01A62ED3
:1002B000B72ECBE1D2E00DE712E0FE0183E690E03D
:1002C00081939193E017F107D9F7A42FB52F40E060
:1002D00050E0EC2EFD2E64E670E010929002109239
:1002E0008F02EE2DFF2D20E030E08D919C91119733
:1002F0002817390711F4718360832F5F3F4F3093C4
:10030000900220938F0232962133310571F74F5FAF
:100310005F4F12964330510501F7A092AD02B092A3
:10032000AE0281E090E09093900280938F020F2EB6
:10033000F5E92F2EF0E03F2EF02D8A2D9B2DB601F2
:10034000F1011995EA2CFB2CAA24BB240F2EFBE10A
:100350004F2EF2E05F2EF02D0F2EFDEA8F2EF2E0F1
:100360009F2EF02D66247724639448C0C701B60100
:10037000F101199581E0A816B10409F03FC0809100
:10038000A9029091AA020097C1F180911B0390915C
:100390001C0320911103309112038217930724F458
:1003A0000894E11CF11C06C0281739071CF40894B6
:1003B000E108F108C7010797C816D90631F0C7014F
:1003C0000796C816D90631F403C0AA24BB2402C07C
:1003D000AA24BB2420918F0230919002C901880F7A
:1003E000991F880D991DFC01F182E082C9010196D7
:1003F0009093900280938F0201C05301EC14FD048E
:1004000009F472C1C6018E199F09181619060CF05D
:1004100048C02091A9023091AA022115310509F4A2
:1004200040C0C701B301A2010E94D30082309105F0
:1004300021F40894E11CF11C21C08830910521F4BD
:100440000894E108F1081AC08A30910599F4809166
:100450001B0390911C03209111033091120382170A
:10046000930724F40894E11CF11C08C00894E108E7
:10047000F10804C087E090E0E80EF91E20918F0299
:1004800030919002C901880F991F880D991DFC01B8
:10049000F182E082C90101969093900280938F02CD
:1004A00065CF99230CF048C08091A9029091AA02CF
:1004B000009709F441C0C70164E070E0A2010E9406
:1004C000D3008230910521F40894E11CF11C21C075
:1004D0008830910521F40894E108F1081AC08A30A7
:1004E000910599F480911B0390911C0320911103B5
:1004F000309112038217930724F40894E11CF11C35
:1005000008C00894E108F10804C089EF9FEFE80EE5
:10051000F91E20918F0230919002C901880F991F16
:10052000880D991DFC01F182E082C901019690932A
:10053000900280938F021ACFC70162E070E0A2019F
:100540000E94D3008F30910599F480911B03909104
:100550001C0320911103309112038217930724F496
:100560000894E11CF11CA8C00894E108F108A4C09B
:100570008B30910519F08E309105B9F480911B03F1
:1005800090911C032091110330911203821793075D
:1005900024F40894E11CF11C8FC0281739070CF0D3
:1005A0008BC00894E108F10887C08D309105C1F433
:1005B00080911B0390911C03209111033091120331
:1005C000821793072CF489EF9FEFE80EF91E74C091
:1005D000281739070CF070C00894E108F1086CC0C6
:1005E00087309105C1F480911B0390911C032091E9
:1005F0001103309112038217930724F40894E11C2D
:10060000F11C5AC0281739070CF056C0E9EFFFEF6C
:10061000EE0EFF1E51C08130910519F08530910515
:1006200029F489EF9FEFE80EF91E46C08C30910542
:1006300019F086309105D9F480911103909112033D
:1006400020911B0330911C032817390724F40894C8
:10065000E11CF11C31C08217930724F40894E108CF
:10066000F1082AC0E7E0F0E0EE0EFF1E25C0893059
:10067000910519F083309105D9F480911B03909175
:100680001C0320911103309112038217930724F465
:100690000894E11CF11C10C02817390724F40894B1
:1006A000E108F10809C089EF9FEFE80EF91E04C0C8
:1006B000E7E0F0E0EE0EFF1E20918F0230919002F5
:1006C000C901880F991F880D991DFC01F182E082F4
:1006D000C90101969093900280938F02C701B601E1
:1006E000F101199553014BCE83E690E089939993DC
:1006F000C017D107D9F780918F0290919002DF91B6
:10070000CF911F910F91FF90EF90DF90CF90BF900E
:10071000AF909F908F907F906F905F904F903F90A1
:100720002F90089587B1876F87B988B1807888B98D
:10073000089586E69EE00197F1F700004098419801
:1007400080E388B9429AEFEFF7E43197F1F700C000
:1007500000004298E6E6FEE03197F1F7000040988D
:10076000419888B9429AEFEFF7E43197F1F700C06A
:1007700000004298E6E6FEE03197F1F7000040986D
:10078000419888B9429A8FEF97E40197F1F700C03A
:1007900000004298E6E6FEE03197F1F7000040984D
:1007A000419880E288B9429A8FEF97E40197F1F778
:1007B00000C000004298089598B19F7098B998B110
:1007C000282F207F922B98B940984198429AEFEFBA
:1007D000F7E43197F1F700C00000429898B19F709C
:1007E00098B998B18295807F892B88B940984198B3
:1007F000429A8FEF97E40197F1F700C0000042980A
:1008000008950E94990386E69EE00197F1F70000A3
:1008100088E20E94DC0381E00E94DC0386E00E9403
:10082000DC038EE00E94DC0380E80E94DC03089574
:1008300098B19F7098B998B1282F207F922B98B9C2
:10084000409A4198429AEFEFF7E43197F1F700C0F0
:100850000000429898B19F7098B998B18295807FB6
:10086000892B88B9409A4198429A8FEF97E4019773
:10087000F1F700C000004298089580E80E94DC0370
:100880000895CF93DF93EC018881882331F021967E
:100890000E94180489918823D9F7DF91CF91089598
:1008A000823079F0833018F48130C9F405C0833088
:1008B00069F08430A1F40FC0862F81580E94DC03B8
:1008C0000895862F81540E94DC030895862F8D564B
:1008D0000E94DC030895862F8D520E94DC03089548
:1008E0000F931F93CF93DF938A01E901882311F0BF
:1008F000662319F40E943D0402C00E945004C530D2
:10090000D10571F4C80160E177E20E949114CB0136
:10091000C09690938202809381020E94180403C0C3
:10092000C430D105B9F4C80168EE73E00E94911497
:10093000CB017093A6026093A5026AE070E00E946A
:100940009114C09690934803809347030E94180423
:1009500081E001C080E0C330D10511F08130B1F4F5
:10096000C80164E670E00E949114CB017093A60266
:100970006093A5026AE070E00E949114C096909383
:100980001A03809319030E94180481E0C230D10534
:1009900011F08130B1F42AE030E0C801B9010E94C1
:1009A0009114CB017093A6026093A502B9010E9435
:1009B0009114C0969093100380930F030E94180423
:1009C00081E0C130D10511F0813061F4C8016AE0E5
:1009D00070E00E949114C096909346038093450363
:1009E0000E941804C630D1051CF085E40E9418044A
:1009F000DF91CF911F910F910895CF93DF93EC0179
:100A000081E062E0AE0124E030E00E947004AE01BB
:100A1000405D5F4F82E062E024E030E00E947004BD
:100A2000E0ECF0E0808185FFFDCFC05DC093C600A3
:100A30008FEF9FEFACE281509040A040E1F700C003
:100A40000000DF91CF9108951F920F920FB60F9281
:100A50000BB60F9211242F933F934F935F936F9395
:100A60007F938F939F93EF93FF938091C60090E0C5
:100A7000AC0140535040BA019C012459304022330C
:100A80003105B8F4E0910A02F0910B029C0124595F
:100A90003040EE0FFF1FE35EFC4F31832083209137
:100AA0000A0230910B022F5F3F4F30930B022093CD
:100AB0000A0262337105A0F4E0910C02F0910D027C
:100AC000EE0FFF1FEF5CFC4F5183408380910C02BF
:100AD00090910D02019690930D0280930C022DC00F
:100AE0009A012253304022333105B0F4E0910802DC
:100AF000F091090282569040EE0FFF1FEF56FD4F16
:100B000091838083809108029091090201969093CD
:100B100009028093080211C0CA01865990408233AD
:100B2000910528F45093AC024093AB0206C081E0DB
:100B300090E09093150280931402FF91EF919F91A2
:100B40008F917F916F915F914F913F912F910F9076
:100B50000BBE0F900FBE0F901F90189510BA11BAD0
:100B60001092070110920801089581B18F6081B938
:100B700082B1807F82B9EAE0F1E080818861808380
:100B8000EBE0F1E080818861808308950E94920308
:100B90000E94AE050E94B5050895E1E2F1E01082E1
:100BA0008FEF8093250191E0909324011092290109
:100BB0008093280110922B0180932A0110922D011D
:100BC00080932C0189EA809320018BE08083089533
:100BD000EAE7F0E0108210927B0080E280937C00D4
:100BE00080E880BF86E880830895883018F098E018
:100BF00090937B008770806280937C00EAE7F0E04E
:100C0000808180648083808184FFFDCF8091790022
:100C1000EAE7F0E090819061908310927B00089564
:100C2000433031F483E00E94F50580937D020895FE
:100C3000423031F482E00E94F50580937E020895EF
:100C4000413029F481E00E94F5058093A7020895C0
:100C500081E061E041E00E94100681E065E042E051
:100C60000E94100681E069E043E00E9410060895AA
:100C700080E090E06AE570E00E94C80088E090E0C3
:100C80000E94CD0008958AE590E060E070E00E9447
:100C9000C80081E090E00E94CD00089584E690E0D5
:100CA00064E670E00E94C80086E090E00E94CD00FB
:100CB00008958AE590E06AE570E00E94C80089E046
:100CC00090E00E94CD0008958EE690E060E070E034
:100CD0000E94C8008AE090E00E94CD00089580E064
:100CE00090E06AE570E00E94C80085E090E00E9414
:100CF000CD00089580E090E06AE570E00E94C800B1
:100D000085E090E00E94CD00089580E090E06EE6DE
:100D100070E00E94C80085E090E00E94CD00089538
:100D200080E090E00E94CD000895F894E1ECF0E0BE
:100D300010821092C00086E08093C2008FE58093FD
:100D4000C4001092C50088E98083789408952F929A
:100D50003F924F925F926F927F928F929F92AF924B
:100D6000BF92CF92DF92EF92FF920F931F93CF9398
:100D7000DF930091AD021091AE028090040290903A
:100D800005020336110509F4ACC70F2EFFEA6F2EDA
:100D9000F2E07F2EF02DF3014424552443948191F9
:100DA00091918336910521F41414150444F099C7E8
:100DB0000894411C511C81E34816510481F7EE242C
:100DC000FF24E394C8E2D6E022243324239481E074
:100DD00062E0A80124E030E00E9470045801089409
:100DE000A108B108B0921902A092180268010894F3
:100DF000C11CD11CC80188539F4F0E94FD04D30120
:100E00008D919D913D018C159D0509F0B7C1B1E013
:100E10008B16910409F066C00E944E068FEF9FEB7F
:100E2000A1E281509040A040E1F700C00000FE0127
:100E3000199548C0FE01199580917E02833209F40C
:100E400041C080917D02833298F48091A702843260
:100E500078F00E9464068FEF9FE7A4E081509040F5
:100E6000A040E1F700C0000080917E02833251F182
:100E700080917D02843278F08091A702833258F409
:100E80000E9485068FEF9FE7A4E081509040A0402C
:100E9000E1F700C0000080917E02843298F08091DA
:100EA0007D02833278F48091A702833258F40E9445
:100EB0004E068FEF9FE7A4E081509040A040E1F7FD
:100EC00000C0000080917E02843208F4B3CF80918C
:100ED0007D02843208F4AECF8091A702843208F4F8
:100EE000A9CFF8C693E08916910409F067C00E9463
:100EF00059068FEF9FEBA1E281509040A040E1F7AF
:100F000000C00000FE01199548C0FE0119958091AE
:100F10007E02833209F441C080917D02833298F4CD
:100F20008091A702843278F00E9438068FEF9FE705
:100F3000A4E081509040A040E1F700C00000809103
:100F40007E02833251F180917D02843278F080916B
:100F5000A702833258F40E9443068FEF9FE7A4E074
:100F600081509040A040E1F700C0000080917E02D7
:100F7000843298F080917D02833278F48091A702C8
:100F8000833258F40E9459068FEF9FE7A4E0815006
:100F90009040A040E1F700C0000080917E028432C2
:100FA00008F4B3CF80917D02843208F4AECF8091F3
:100FB000A702843208F4A9CF41018CC681149104A0
:100FC00009F067C00E9464068FEF9FEBA1E2815099
:100FD0009040A040E1F700C00000FE01199548C014
:100FE000FE01199580917E02833209F441C08091FF
:100FF0007D02833298F48091A702843278F00E94B7
:1010000064068FEF9FE7A4E081509040A040E1F795
:1010100000C0000080917E02833251F180917D02F8
:10102000843278F08091A702833258F40E948506BA
:101030008FEF9FE7A4E081509040A040E1F700C00F
:10104000000080917E02843298F080917D0283328C
:1010500078F48091A702833258F40E944E068FEFF5
:101060009FE7A4E081509040A040E1F700C000005D
:1010700080917E02843208F4B3CF80917D02843265
:1010800008F4AECF8091A702843208F4A9CF4101C1
:1010900021C60E9485068FEF9FEBA1E28150904010
:1010A000A040E1F700C00000FE01199548C0FE0114
:1010B000199580917E02833209F441C080917D02AE
:1010C000833298F48091A702843278F00E946406FB
:1010D0008FEF9FE7A4E081509040A040E1F700C06F
:1010E000000080917E02833251F180917D02843232
:1010F00078F08091A702833258F40E9485068FEF22
:101100009FE7A4E081509040A040E1F700C00000BC
:1011100080917E02843298F080917D02833278F44F
:101120008091A702833258F40E944E068FEF9FE70A
:10113000A4E081509040A040E1F700C00000809101
:101140007E02843208F4B3CF80917D02843208F4A9
:10115000AECF8091A702843208F4A9CF0E949006F6
:101160008FEF9FEFACE281509040A040E1F700C0CC
:101170000000FE01199586014101ACC520911802BD
:10118000309119028217930709F0B9C193E08916CB
:10119000910409F066C00E944E068FEF9FEBA1E21A
:1011A00081509040A040E1F700C00000FE01199579
:1011B00048C0FE01199580917E02833209F441C036
:1011C00080917D02833298F48091A702843278F076
:1011D0000E9464068FEF9FE7A4E081509040A040FA
:1011E000E1F700C0000080917E02833251F18091CE
:1011F0007D02843278F08091A702833258F40E94F5
:1012000085068FEF9FE7A4E081509040A040E1F772
:1012100000C0000080917E02843298F080917D02AF
:10122000833278F48091A702833258F40E944E06EC
:101230008FEF9FE7A4E081509040A040E1F700C00D
:10124000000080917E02843208F4B3CF80917D0249
:10125000843208F4AECF8091A702843208F4A9CF7B
:101260003AC191E08916910409F066C00E94850692
:101270008FEF9FEFA9E581509040A040E1F700C0BB
:101280000000FE01199548C0FE01199580917E026B
:10129000833209F441C080917D02833298F48091B9
:1012A000A702843278F00E9464068FEF9FE7A4E0E3
:1012B00081509040A040E1F700C0000080917E0284
:1012C000833251F180917D02843278F08091A702BF
:1012D000833258F40E9485068FEF9FE7A4E0815087
:1012E0009040A040E1F700C0000080917E0284326F
:1012F00098F080917D02833278F48091A702833246
:1013000058F40E944E068FEF9FE7A4E08150904072
:10131000A040E1F700C0000080917E02843208F412
:10132000B3CF80917D02843208F4AECF8091A702C2
:10133000843208F4A9CFCFC08114910409F066C0AB
:101340000E9485068FEF9FEBA1E281509040A04064
:10135000E1F700C00000FE01199548C0FE01199593
:1013600080917E02833209F441C080917D028332F4
:1013700098F48091A702843278F00E9464068FEF7F
:101380009FE7A4E081509040A040E1F700C000003A
:1013900080917E02833251F180917D02843278F017
:1013A0008091A702833258F40E9485068FEF9FE751
:1013B000A4E081509040A040E1F700C0000080917F
:1013C0007E02843298F080917D02833278F480919D
:1013D000A702833258F40E944E068FEF9FE7A4E0E5
:1013E00081509040A040E1F700C0000080917E0253
:1013F000843208F4B3CF80917D02843208F4AECFFA
:101400008091A702843208F4A9CF65C00E946406C7
:101410008FEF9FEBA1E281509040A040E1F700C028
:101420000000FE01199548C0FE01199580917E02C9
:10143000833209F441C080917D02833298F4809117
:10144000A702843278F00E9464068FEF9FE7A4E041
:1014500081509040A040E1F700C0000080917E02E2
:10146000833251F180917D02843278F08091A7021D
:10147000833258F40E9485068FEF9FE7A4E08150E5
:101480009040A040E1F700C0000080917E028432CD
:1014900098F080917D02833278F48091A7028332A4
:1014A00058F40E944E068FEF9FE7A4E081509040D1
:1014B000A040E1F700C0000080917E02843208F471
:1014C000B3CF80917D02843208F4AECF8091A70221
:1014D000843208F4A9CF0E9490068FEF9FEFACE210
:1014E00081509040A040E1F700C000000E94280613
:1014F00085010F2EF3E08F2E9924F02DEBC30F2ED4
:10150000F7E0CF2EDD24F02DC00ED11EC816D9066F
:1015100009F0EEC191E08916910409F078C00E94AB
:1015200085068FEF9FEBAAE281509040A040E1F743
:1015300000C00000FE01199548C0FE011995809178
:101540007E02833209F441C080917D02833298F497
:101550008091A702843278F00E9464068FEF9FE7A3
:10156000A4E081509040A040E1F700C000008091CD
:101570007E02833251F180917D02843278F0809135
:10158000A702833258F40E9485068FEF9FE7A4E0FC
:1015900081509040A040E1F700C0000080917E02A1
:1015A000843298F080917D02833278F48091A70292
:1015B000833258F40E944E068FEF9FE7A4E08150DB
:1015C0009040A040E1F700C0000080917E0284328C
:1015D00008F4B3CF80917D02843208F4AECF8091BD
:1015E000A702843208F4A9CF0E9490068FEF9FEFE4
:1015F000ACE281509040A040E1F700C00000FE0145
:101600001995860188249924689481F863C393E02E
:101610008916910409F078C00E9464068FEF9FEB51
:10162000AAE281509040A040E1F700C00000FE0116
:10163000199548C0FE01199580917E02833209F404
:1016400041C080917D02833298F48091A702843258
:1016500078F00E9464068FEF9FE7A4E081509040ED
:10166000A040E1F700C0000080917E02833251F17A
:1016700080917D02843278F08091A702833258F401
:101680000E9485068FEF9FE7A4E081509040A04024
:10169000E1F700C0000080917E02843298F08091D2
:1016A0007D02833278F48091A702833258F40E943D
:1016B0004E068FEF9FE7A4E081509040A040E1F7F5
:1016C00000C0000080917E02843208F4B3CF809184
:1016D0007D02843208F4AECF8091A702843208F4F0
:1016E000A9CF0E9490068FEF9FEFACE2815090400F
:1016F000A040E1F700C00000FE0119958601882492
:101700009924689481F8E6C28114910409F078C0A4
:101710000E9464068FEF9FEFA9E581509040A040A2
:10172000E1F700C00000FE01199548C0FE011995BF
:1017300080917E02833209F441C080917D02833220
:1017400098F48091A702843278F00E9464068FEFAB
:101750009FE7A4E081509040A040E1F700C0000066
:1017600080917E02833251F180917D02843278F043
:101770008091A702833258F40E9485068FEF9FE77D
:10178000A4E081509040A040E1F700C000008091AB
:101790007E02843298F080917D02833278F48091C9
:1017A000A702833258F40E944E068FEF9FE7A4E011
:1017B00081509040A040E1F700C0000080917E027F
:1017C000843208F4B3CF80917D02843208F4AECF26
:1017D0008091A702843208F4A9CF0E9490068FEF6F
:1017E0009FEFACE281509040A040E1F700C00000C4
:1017F000FE011995860188249924689481F86AC2AB
:101800000E944E068FEF9FEBA1E281509040A040D6
:10181000E1F700C00000FE01199548C0FE011995CE
:1018200080917E02833209F441C080917D0283322F
:1018300098F48091A702843278F00E9464068FEFBA
:101840009FE7A4E081509040A040E1F700C0000075
:1018500080917E02833251F180917D02843278F052
:101860008091A702833258F40E9485068FEF9FE78C
:10187000A4E081509040A040E1F700C000008091BA
:101880007E02843298F080917D02833278F48091D8
:10189000A702833258F40E944E068FEF9FE7A4E020
:1018A00081509040A040E1F700C0000080917E028E
:1018B000843208F4B3CF80917D02843208F4AECF35
:1018C0008091A702843208F4A9CF0E9490068FEF7E
:1018D0009FEFACE281509040A040E1F700C00000D3
:1018E000FE011995860188249924689481F8F2C133
:1018F0000F2EF9EFAF2EFFEFBF2EF02DA00EB11E71
:10190000A816B90609F0E6C191E08916910409F01C
:1019100076C00E9464068FEF9FEBAAE28150904050
:10192000A040E1F700C00000FE01199548C0FE018B
:10193000199580917E02833209F441C080917D0225
:10194000833298F48091A702843278F00E94640672
:101950008FEF9FE7A4E081509040A040E1F700C0E6
:10196000000080917E02833251F180917D028432A9
:1019700078F08091A702833258F40E9485068FEF99
:101980009FE7A4E081509040A040E1F700C0000034
:1019900080917E02843298F080917D02833278F4C7
:1019A0008091A702833258F40E944E068FEF9FE782
:1019B000A4E081509040A040E1F700C00000809179
:1019C0007E02843208F4B3CF80917D02843208F421
:1019D000AECF8091A702843208F4A9CF0E9490066E
:1019E0008FEF9FEFACE281509040A040E1F700C044
:1019F0000000FE0119958501882499246BC193E0AC
:101A00008916910409F076C00E9485068FEF9FEB3E
:101A1000AAE281509040A040E1F700C00000FE0122
:101A2000199548C0FE01199580917E02833209F410
:101A300041C080917D02833298F48091A702843264
:101A400078F00E9464068FEF9FE7A4E081509040F9
:101A5000A040E1F700C0000080917E02833251F186
:101A600080917D02843278F08091A702833258F40D
:101A70000E9485068FEF9FE7A4E081509040A04030
:101A8000E1F700C0000080917E02843298F08091DE
:101A90007D02833278F48091A702833258F40E9449
:101AA0004E068FEF9FE7A4E081509040A040E1F701
:101AB00000C0000080917E02843208F4B3CF809190
:101AC0007D02843208F4AECF8091A702843208F4FC
:101AD000A9CF0E9490068FEF9FEFACE2815090401B
:101AE000A040E1F700C00000FE011995860188249E
:101AF0009924F0C092E08916910409F076C00E9402
:101B000085068FEF9FEFA9E581509040A040E1F757
:101B100000C00000FE01199548C0FE011995809192
:101B20007E02833209F441C080917D02833298F4B1
:101B30008091A702843278F00E9464068FEF9FE7BD
:101B4000A4E081509040A040E1F700C000008091E7
:101B50007E02833251F180917D02843278F080914F
:101B6000A702833258F40E9485068FEF9FE7A4E016
:101B700081509040A040E1F700C0000080917E02BB
:101B8000843298F080917D02833278F48091A702AC
:101B9000833258F40E944E068FEF9FE7A4E08150F5
:101BA0009040A040E1F700C0000080917E028432A6
:101BB00008F4B3CF80917D02843208F4AECF8091D7
:101BC000A702843208F4A9CF0E9490068FEF9FEFFE
:101BD000ACE281509040A040E1F700C00000FE015F
:101BE000199585018824992475C00E944E068FEFAF
:101BF0009FEBA1E281509040A040E1F700C00000BF
:101C0000FE01199548C0FE01199580917E0283322C
:101C100009F441C080917D02833298F48091A7023B
:101C2000843278F00E9464068FEF9FE7A4E0815031
:101C30009040A040E1F700C0000080917E02833216
:101C400051F180917D02843278F08091A702833235
:101C500058F40E9485068FEF9FE7A4E081509040E2
:101C6000A040E1F700C0000080917E02843298F02D
:101C700080917D02833278F48091A702833258F4F8
:101C80000E944E068FEF9FE7A4E081509040A04055
:101C9000E1F700C0000080917E02843208F4B3CFE7
:101CA00080917D02843208F4AECF8091A702843205
:101CB00008F4A9CF0E9490068FEF9FEFACE281500D
:101CC0009040A040E1F700C00000FE011995850199
:101CD000882499240894E11CF11C4E145F040CF034
:101CE00076C89092050280920402109380020093BD
:101CF0007F0210920D0210920C0280910C029091C2
:101D00000D0281339105F4F42DEA32E043E650E010
:101D1000E0910C02F0910D02EE0FFF1FE20FF31F96
:101D20005183408380910C0290910D020196909313
:101D30000D0280930C0280910C0290910D02813370
:101D4000910534F381E06AE0A80122E030E00E94CE
:101D50007004DF91CF911F910F91FF90EF90DF9072
:101D6000CF90BF90AF909F908F907F906F905F903B
:101D70004F903F902F90089510BA11BA109207011A
:101D8000109208010895F8940E94C6050E94E80583
:101D90000E94CD050E949506789408950E949203B2
:101DA0000E9499030E9401040E94C30E1092170220
:101DB0001092160241E353E023E630E06DE173E058
:101DC000A3E1B3E02EC0E0911602F0911702EE0FEE
:101DD000FF1FE40FF51F31832083E0911602F0917D
:101DE0001702EE0FFF1FE60FF71F3183208380914C
:101DF0001602909117028330910554F4E091160277
:101E0000F0911702EE0FFF1FEA0FFB1F31832083B3
:101E10008091160290911702019690931702809379
:101E2000160280911602909117028A3091055CF299
:101E30008FEF9FEFACE281509040A040E1F700C0EF
:101E4000000010921702109216020DE113E0C1E398
:101E5000D3E04091490350914A0381E06AE022E0D7
:101E600030E00E94700410928E0210928D0280E089
:101E700090E0FC01EE0FFF1FE00FF11F4081518148
:101E800082E06BE024E030E00E947004E0918D027B
:101E9000F0918E02EE0FFF1FEC0FFD1F408151816C
:101EA00082E061E024E030E00E9470048FEF9FEF59
:101EB000ACE281509040A040E1F700C0000080916A
:101EC0008D0290918E02019690938E0280938D02E6
:101ED0008430910574F2409114025091150281E012
:101EE00065E022E030E00E9470048FEF9FEFACE2EB
:101EF00081509040A040E1F700C0000080911402A2
:101F0000909115028130910509F09BC04091140217
:101F10005091150281E065E022E030E00E947004FB
:101F200010928E0210928D0240911402509115026F
:101F300081E065E022E030E00E947004E0918D02D3
:101F4000F0918E02EE0FFF1FEC0FFD1F40815181BB
:101F500081E066E024E030E00E94700440910A02D3
:101F600050910B0281E06DE022E030E00E947004AD
:101F70008FEF9FEFACE281509040A040E1F700C0AE
:101F8000000080918D0290918E02019690938E02B6
:101F900080938D02843091053CF20E94701181E0A3
:101FA0000E94DC0380911402909115028230910509
:101FB00009F047C010920D0210920C0280910C02A1
:101FC00090910D0286309105E4F5E0910C02F091BC
:101FD0000D02EE0FFF1FEC0FFD1F808191818336F4
:101FE000910579F1E0910C02F0910D02EE0FFF1FC7
:101FF000EC0FFD1F808191818C599F4F0E94FD0441
:10200000109215021092140280910C0290910D0210
:10201000019690930D0280930C0280910C02909196
:102020000D02863091056CF4E0910C02F0910D02E6
:10203000EE0FFF1FEC0FFD1F80819181833691050C
:1020400089F680911202909113028130910509F076
:1020500000CF84E090E090931502809314020E94D8
:10206000701180911202909113028230910509F053
:10207000F0CE81E00E94DC034091120250911302E5
:1020800081E061E022E030E00E94700410920D02D5
:1020900010920C0280910C0290910D0286309105F5
:1020A0000CF0D7CEE0910C02F0910D02EE0FFF1F65
:1020B000E00FF11F808191818336910509F4C9CE2B
:1020C000409112025091130282E062E022E030E07F
:1020D0000E947004E0910C02F0910D02EE0FFF1FC0
:1020E000E00FF11F808191818C599F4F0E94FD0468
:1020F0001092150210921402109213021092120202
:1021000080910C0290910D02019690930D028093A4
:102110000C0280910C0290910D02863091050CF01A
:1021200098CEE0910C02F0910D02EE0FFF1FE00F30
:10213000F11F808191818336910511F68ACE8F92AD
:102140009F92AF92BF92CF92DF92EF92FF920F9346
:102150001F93CF93DF93CDB7DEB760970FB6F89498
:10216000DEBF0FBECDBF7C019A83898360911602CA
:10217000709117020F2EF3E1CF2EF3E0DF2EF02D3A
:10218000A6010E9444018C019A878987C70107969E
:102190009C838B836091160270911702A6010E94A6
:1021A00044015C019C878B87C70108969E838D83C1
:1021B0006091160270911702A6010E9444014C0121
:1021C0009E878D87C701019698878F83609116023D
:1021D00070911702A6010E944401DC01A114B10410
:1021E000C1F081149104C1F00097C9F001151105E7
:1021F000C9F0A501BC01940181E090E0FC018417C5
:10220000950791F08217930779F08617970791F455
:102210000BC0E0E0F0E008C0E0E0F0E005C0E0E086
:10222000F0E002C0E0E0F0E089859A858E179F0714
:1022300041F41DC001501040019601151105F1F641
:10224000F3CF8B859C858E179F0759F08D859E85D2
:102250008E179F0749F0AE17BF0761F4E3E0F0E087
:102260000BC0E1E0F0E008C0E2E0F0E005C0E0E033
:10227000F0E002C0E4E0F0E0609116027091170215
:10228000EE0FFF1FEC0FFD1F8181928143E153E0B0
:102290000E94440160960FB6F894DEBF0FBECDBF1A
:1022A000DF91CF911F910F91FF90EF90DF90CF9032
:1022B000BF90AF909F908F90089566E070E00E946D
:1022C000A5149C01CB01880F991F880F991F880FB7
:1022D000991F861B970B820F931F0E949F100895D2
:1022E000EF92FF920F931F93CF93DF93CDB7DEB79B
:1022F000A8970FB6F894DEBF0FBECDBFFE01319692
:10230000DE015596CE010D9623E630E02193319300
:102310002D933D93E817F907C9F780911402909126
:10232000150284309105E9F510920D0210920C020D
:1023300080910C0290910D02863091054CF54DE193
:1023400053E061E373E080910C0290910D02E09103
:102350000C02F0910D02EE0FFF1FE40FF51F20811C
:102360003181FC01EE0FFF1FE60FF71F3183208341
:1023700080910C0290910D02019690930D02809332
:102380000C0280910C0290910D0286309105DCF2D6
:102390008091490390914A0390931702809316020B
:1023A00008C08091AB029091AC0290931702809389
:1023B000160210920D0210920C02E0910C02F091A4
:1023C0000D02EE0FFF1FEF5CFC4F80819181833681
:1023D0009105B9F10F2EF1E3EF2EF3E0FF2EF02D72
:1023E00000910C0210910D02E0910C02F0910D028F
:1023F000EE0FFF1FEE0DFF1D808191810E945D1188
:10240000F801EE0FFF1F21E030E02C0F3D1FE20F1F
:10241000F31F9183808380910C0290910D020196AD
:1024200090930D0280930C02E0910C02F0910D024A
:10243000EE0FFF1FEE0DFF1D808191818336910508
:1024400079F610920D0210920C0280910C0290917C
:102450000D02863091050CF052C0E0910C02F09113
:102460000D02EE0FFF1FEC0FFD1F8181928183365D
:10247000910509F444C023E630E0E0910C02F091AC
:102480000D02EE0FFF1F41E050E04C0F5D1FE40F07
:10249000F51F358B248BE0910C02F0910D02809199
:1024A0000C0290910D02EE0FFF1FE40FF51FDC01EF
:1024B000AA0FBB1FA40FB51F8D919C911197958BEF
:1024C000848B80910C0290910D02019690930D02E5
:1024D00080930C0280910C0290910D028630910540
:1024E00074F4E0910C02F0910D02EE0FFF1FE40F67
:1024F000F51F808191818336910509F0BECF10923E
:102500000D0210920C0280910C0290910D02863007
:1025100091050CF0C7C0E0910C02F0910D02EE0F96
:10252000FF1FEC0FFD1F858996898336910509F4FD
:10253000B9C080910C0290910D02019690930B020C
:1025400080930A0280910A0290910B0286309105D5
:102550000CF086C0E0910A02F0910B02EE0FFF1F13
:1025600081E090E08C0F9D1FE80FF91F8489958909
:102570008336910509F474C0A0910C02B0910D024C
:10258000E0910A02F0910B02AA0FBB1F21E030E09C
:102590002C0F3D1FA20FB31FEE0FFF1FE20FF31F03
:1025A00054962D913C91559784899589821793076C
:1025B000ACF5E0910C02F0910D02EE0FFF1F41E02F
:1025C00050E04C0F5D1FE40FF51F448955892091A1
:1025D0000C0230910D02E0910A02F0910B02EE0F15
:1025E000FF1F81E090E08C0F9D1FE80FF91F848989
:1025F0009589F901EE0FFF1F21E030E02C0F3D1F00
:10260000E20FF31F958B848BE0910A02F0910B028D
:10261000EE0FFF1FE20FF31F558B448B80910A02D0
:1026200090910B02019690930B0280930A02809185
:102630000A0290910B028630910594F4E0910A020F
:10264000F0910B02EE0FFF1F41E050E04C0F5D1FB9
:10265000E40FF51F848995898336910509F08CCFA5
:1026600080910C0290910D02019690930D0280933F
:102670000C0280910C0290910D028630910594F429
:10268000E0910C02F0910D02EE0FFF1F81E090E04F
:102690008C0F9D1FE80FF91F84899589833691055A
:1026A00009F047CF10920D0210920C0280910C029B
:1026B00090910D02863091050CF0D9C0E0910C028A
:1026C000F0910D02EE0FFF1FEC0FFD1F858996891B
:1026D0008336910509F4CBC041E353E080910C02AD
:1026E00090910D02019690930B0280930A028091C3
:1026F0000A0290910B02863091050CF096C0E09191
:102700000A02F0910B02EE0FFF1F21E030E02C0FC8
:102710003D1FE20FF31F808191818336910509F4FB
:1027200084C0E0910C02F0910D0280910A02909118
:102730000B02EE0FFF1FE20FF31FDC01AA0FBB1FFE
:10274000A20FB31F848995892D913C91119782170F
:10275000930709F048C01DC0E0910C02F0910D02F2
:1027600080910A0290910B02EE0FFF1F21E030E0F2
:102770002C0F3D1FE20FF31FDC01AA0FBB1FA20F9E
:10278000B31F848995892D913C91119782179307E6
:1027900051F5E0910C02F0910D02EE0FFF1FE40FD6
:1027A000F51F6081718120910C0230910D02E09142
:1027B0000A02F0910B02EE0FFF1FE40FF51F80815C
:1027C0009181F901EE0FFF1FE40FF51F91838083C4
:1027D000E0910A02F0910B02EE0FFF1FE40FF51FCC
:1027E0007183608322C080910A0290910B0201964E
:1027F00090930B0280930A0280910A0290910B023F
:102800008630910594F4E0910A02F0910B02EE0FEC
:10281000FF1F81E090E08C0F9D1FE80FF91F808162
:1028200091818336910509F097CF80910C029091A8
:102830000D02019690930D0280930C0280910C0280
:1028400090910D028630910594F4E0910C02F09184
:102850000D02EE0FFF1F21E030E02C0F3D1FE20FB5
:10286000F31F848995898336910509F037CF8091CC
:102870001402909115028430910509F03FC0109226
:1028800015021092140282E090E09093130280935C
:10289000120210920D0210920C0280910C02909183
:1028A0000D028630910584F541E353E06DE173E05C
:1028B00080910C0290910D02E0910C02F0910D02BA
:1028C000EE0FFF1FE40FF51F20813181FC01EE0F99
:1028D000FF1FE60FF71F3183208380910C02909138
:1028E0000D02019690930D0280930C0280910C02D0
:1028F00090910D0286309105DCF206C082E090E0F6
:102900009093150280931402A8960FB6F894DEBF38
:102910000FBECDBFDF91CF911F910F91FF90EF9030
:102920000895AA1BBB1B51E107C0AA1FBB1FA61716
:10293000B70710F0A61BB70B881F991F5A95A9F768
:1029400080959095BC01CD01089597FB092E07262F
:102950000AD077FD04D0E5DF06D000201AF4709588
:1029600061957F4F0895F6F7909581959F4F089553
:04297000F894FFCF09
:02297400000061
:00000001FF
