:100000000C9472000C9493000C9493000C94930045
:100010000C9493000C9493000C9493000C94930014
:100020000C9493000C9493000C9493000C94930004
:100030000C9493000C9493000C9493000C949300F4
:100040000C9493000C9493000C9493000C949300E4
:100050000C9493000C9493000C9493000C949300D4
:100060000C9493000C9493000C9493000C949300C4
:100070000C9493000C9493000C9493000C949300B4
:100080000C9493000C9493000C9493000C949300A4
:100090000C9493000C9493000C9493000C94930094
:1000A0000C9493000C9493000C9493000C94930084
:1000B0000C9493000C9493000C9493000C94930074
:1000C0000C9493000C9493000C9493000C94930064
:1000D0000C9493000C9493000C9493000C94930054
:1000E0000C94930011241FBECFEFD1E2DEBFCDBF31
:1000F00000E00CBF12E0A0E0B2E0E4E5F9E000E0CF
:100100000BBF02C007900D92A030B107D9F712E0E3
:10011000A0E0B2E001C01D92AB37B107E1F70E9449
:100120005C040C94A8040C94000086E69EE0019701
:10013000F1F700004098419880E388B9429AEFEFC8
:10014000F7E43197F1F700C000004298E6E6FEE0E0
:100150003197F1F700004098419888B9429AEFEF43
:10016000F7E43197F1F700C000004298E6E6FEE0C0
:100170003197F1F700004098419888B9429A8FEF83
:1001800097E40197F1F700C000004298E6E6FEE030
:100190003197F1F700004098419880E288B9429A7F
:1001A0008FEF97E40197F1F700C00000429808959F
:1001B00098B19F7098B998B1282F207F922B98B949
:1001C00040984198429AEFEFF7E43197F1F700C079
:1001D0000000429898B19F7098B998B18295807F3D
:1001E000892B88B940984198429A8FEF97E40197FC
:1001F000F1F700C00000429808950E94950086E63D
:100200009EE00197F1F7000088E20E94D80081E0AB
:100210000E94D80086E00E94D8008EE00E94D8009C
:1002200080E80E94D800089598B19F7098B998B15D
:10023000282F207F922B98B9409A4198429AEFEF4D
:10024000F7E43197F1F700C00000429898B19F7031
:1002500098B998B18295807F892B88B9409A419846
:10026000429A8FEF97E40197F1F700C0000042989F
:10027000089580E80E94D8000895CF93DF93EC01A1
:100280008881882331F021960E9414018991882366
:10029000D9F7DF91CF910895823079F0833018F447
:1002A0008130C9F405C0833069F08430A1F40FC0F7
:1002B000862F81580E94D8000895862F81540E946D
:1002C000D8000895862F8D560E94D8000895862F55
:1002D0008D520E94D80008950F931F93CF93DF9300
:1002E0008A01E901882311F0662319F40E9439017B
:1002F00002C00E944C01C530D10571F4C80160E113
:1003000077E20E948104CB01C0969093050280930E
:1003100004020E94140103C0C430D105B9F4C8011D
:1003200068EE73E00E948104CB0170930902609330
:1003300008026AE070E00E948104C09690937802FF
:10034000809377020E94140181E001C080E0C330F5
:10035000D10511F08130B1F4C80164E670E00E946B
:100360008104CB0170930902609308026AE070E097
:100370000E948104C09690930E0280930D020E9409
:10038000140181E0C230D10511F08130B1F42AE0CE
:1003900030E0C801B9010E948104CB0170930902C9
:1003A00060930802B9010E948104C09690930C02E8
:1003B00080930B020E94140181E0C130D10511F03D
:1003C000813061F4C8016AE070E00E948104C09647
:1003D00090937602809375020E941401C630D10575
:1003E0001CF085E40E941401DF91CF911F910F91C1
:1003F000089587B1876F87B988B1807888B90895E3
:1004000081B18F6081B982B1807F82B9EAE0F1E089
:10041000808188618083EBE0F1E080818861808366
:10042000089510BA11BA10920701109208010895A8
:10043000E1E2F1E010828FEF8093850091E09093EC
:100440002401109229018093280110922B0180939E
:100450002A0110922D0180932C0189EA80932001BA
:100460008BE0808308958093280160932A0108958A
:1004700022B130E0207F30708F7090E0282B392B34
:1004800022B9089586E966E90E94330286E00E9457
:10049000380208958EE66EE60E94330289E00E94DB
:1004A0003802089588E764E60E9433028AE00E94D9
:1004B000380208958AE568E70E94330285E00E94C9
:1004C0003802089580E060E00E94330280E00E94DC
:1004D00038020895EAE7F0E0108210927B0080E293
:1004E00080937C0080E880BF86E880830895883010
:1004F00018F098E090937B008770806280937C0076
:10050000EAE7F0E0808180648083808184FFFDCF12
:1005100080917900EAE7F0E09081906190831092F9
:100520007B0008950E94F9010E9411020E940002BE
:100530000E946A020895CF93DF93D82FC62F4330CD
:1005400071F483E00E947702482F809302028D2F7E
:100550006C2F50E023E030E00E946C011FC042305D
:1005600071F482E00E947702482F809303028D2F5E
:100570006C2F50E023E030E00E946C010FC041304E
:1005800069F481E00E947702482F80930A028D2F40
:100590006C2F50E023E030E00E946C01DF91CF919E
:1005A0000895F8940E9492020E946A020E94180222
:1005B0000E94F901789408950F931F93CF93DF93CE
:1005C000CDB7DEB70DB71EB7EDB7FEB73196828156
:1005D000938120813181821793071CF40E945A0273
:1005E0000BC00E9452028FEF9FEFA9E5815090400F
:1005F000A040E1F700C000000FB6F8941EBF0FBE88
:100600000DBFDF91CF911F910F910895CF92DF928F
:10061000EF92FF920F931F93CF93DF931816190653
:100620000CF083C00F2EF5E1EF2EF2E0FF2EF02D3F
:100630006C01CC0CDD1CCE0CDF1C08E210E0E801E4
:100640002196D7018D919D917D018C179D0761F5B4
:100650000E9452028FEF9FE7A4E081509040A0409B
:10066000E1F700C0000081E061E041E00E949B02F0
:1006700081E065E042E00E949B0281E069E043E0A6
:100680000E949B020E94420280910302843240F049
:1006900080910202843220F080910A02843218F79D
:1006A0000E94DC028E013BC0E80121978C179D0758
:1006B00061F50E945A028FEF9FE7A4E081509040BD
:1006C000A040E1F700C0000081E061E041E00E944D
:1006D0009B0281E065E042E00E949B0281E069E0CC
:1006E00043E00E949B020E944202809103028432F6
:1006F00040F080910202843220F080910A0284321C
:1007000018F70E94DC028E010AC0E80127978C17B7
:100710009D0729F40E9442020E94DC028E010E9481
:100720006202EC14FD0409F08ACFDF91CF911F9192
:100730000F91FF90EF90DF90CF900895CF92DF92CE
:10074000EF92FF920F931F93CF93DF93E82FF92F30
:10075000EE24FF24C7E0D0E099C0E230F10534F484
:1007600014C037970894E11CF11C0FC0CF01BE01E3
:100770000E9495046C010097A1F3CF010197BE017F
:100780000E949504009769F30DC0CF01BE010E943D
:1007900095046C01009731F4CF01BE010E949504CD
:1007A0008B0107C0CF01BE010E9495048B010F5F32
:1007B0001F4F00FD36C09F012F5F3F4F0894E11C83
:1007C000F11C00FD29C0C901BE010E9495040097DB
:1007D00029F1C114D104A9F423C0F9013196089478
:1007E000E11CF11C00FD1DC0CF01BE010E9495045B
:1007F0000097B9F0C901BE010E949504009789F0E5
:100800009F01C901BE010E9495048B010F5F1F4F1C
:1008100000FFE3CFF90105C0F90103C0F90101C0F0
:10082000F901E230F105BCF19F0100FF2FC03197C3
:100830000894E11CF11C00FF29C0CF01BE010E94F9
:100840009504009719F1C9010297BE010E94950411
:100850000097A1F41BC031970894E11CF11C60FFC4
:1008600015C0CF01BE010E949504009779F0CF0119
:100870000197BE010E949504009741F0CF01BE018F
:100880000E9495046F5F7F4F60FDE5CF1E161F0627
:100890000CF463CF04C01E161F060CF45ECFC70114
:1008A00001960E940603DF91CF911F910F91FF9057
:1008B000EF90DF90CF9008950E94D1020E949500A2
:1008C0000E94FD0088E290E0909307028093060268
:1008D0008FE290E0909312028093110220E330E0C7
:1008E0003093100220930F0228E230E028173907D6
:1008F00028F488E290E00E949E0308950E949E03DF
:100900000895AA1BBB1B51E107C0AA1FBB1FA61756
:10091000B70710F0A61BB70B881F991F5A95A9F7A8
:1009200080959095BC01CD01089597FB092E07266F
:100930000AD077FD04D0E5DF06D000201AF47095C8
:1009400061957F4F0895F6F7909581959F4F089593
:04095000F894FFCF49
:00000001FF
