:100000000C942A000C9447000C9447000C94470071
:100010000C9457000C9447000C9447000C94470034
:100020000C9447000C9447000C9447000C94470034
:100030000C9447000C9447000C9447000C94470024
:100040000C9447000C9447000C9447000C94470014
:100050000C94470011241FBECFE5D4E0DEBFCDBF16
:1000600010E0A0E6B0E0E0E4F1E002C005900D92FF
:10007000A036B107D9F710E0A0E6B0E001C01D92AC
:10008000A436B107E1F70E9474000C949E000C9412
:100090000000A39AAB9808950E944900089583B385
:1000A000886085BB089583B3877F85BB08951F92C1
:1000B0000F920FB60F9211248F938FE684BD8F910C
:1000C0000F900FBE0F901F901895F8940E944C004F
:1000D00085B58F6685BD89B7806489BFF8948F9A8E
:1000E0008FE684BD789408950E94650023E130E88E
:1000F00046E1215030404040E1F700C0000099E760
:100100008AE72FE430E04AE5215030404040E1F7F3
:1001100000C0000093BD2AE939E541E0215030409C
:100120004040E1F700C083BD25E030EC46E02150BF
:1001300030404040E1F700C00000E3CFF894FFCF2B
:00000001FF
