:100000000C942A000C9447000C9447000C94470071
:100010000C9447000C9447000C9447000C94470044
:100020000C9447000C9447000C9447000C94D505A1
:100030000C9447000C9447000C9447000C94470024
:100040000C9447000C9447000C94F8010C94470062
:100050000C94470011241FBECFE5D4E0DEBFCDBF16
:1000600010E0A0E6B0E0E4E7F8E102C005900D92F0
:10007000A039B107D9F712E0A0E9B0E001C01D92A4
:10008000AD30B107E1F70E94630A0C94380C0C9470
:100090000000C39AC49808950F931F93CF93DF93E2
:1000A000FB0127E030E0B9010E94250C8B01EC0137
:1000B000CF01B9010E94250C061B170B10932701D5
:1000C000009326019E012F5F3F4F281B390B1AF426
:1000D000309521953F4F3093A6012093A50121979C
:1000E000C81BD90B1AF4D095C195DF4FD0939C0152
:1000F000C0939B01DF91CF911F910F91089516B886
:1001000080E287B980E888B986E886B9089583E3F4
:1001100097E00197F1F7A898A99880E385BBAA9A80
:10012000EFEFF3E23197F1F700C00000AA98E3E3A4
:10013000F7E03197F1F7A898A99885BBAA9AEFEF55
:10014000F3E23197F1F700C00000AA98E3E3F7E08B
:100150003197F1F7A898A99885BBAA9A8FEF93E2F7
:100160000197F1F700C00000AA98E3E3F7E03197A8
:10017000F1F7A898A99880E285BBAA9A8FEF93E23D
:100180000197F1F700C00000AA98089595B39F70F9
:1001900095BB95B3282F207F922B95BBA898A99843
:1001A000AA9AEFEFF3E23197F1F700C00000AA98A6
:1001B00095B39F7095BB95B38295807F892B85BB46
:1001C000A898A998AA9A8FEF93E20197F1F700C037
:1001D0000000AA98089583E397E00197F1F788E279
:1001E0000E94C60081E00E94C60086E00E94C60010
:1001F0008EE00E94C60080E80E94C600089595B374
:100200009F7095BB95B3282F207F922B95BBA89A02
:10021000A998AA9AEFEFF3E23197F1F700C0000036
:10022000AA9895B39F7095BB95B38295807F892BD3
:1002300085BBA89AA998AA9A8FEF93E20197F1F744
:1002400000C00000AA98089580E80E94C6000895A2
:10025000CF93DF93EC018881882331F021960E94AF
:10026000FF0089918823D9F7DF91CF9108958230DB
:1002700079F0833018F48130C9F405C0833069F017
:100280008430A1F40FC0862F81580E94C6000895C3
:10029000862F81540E94C6000895862F8D560E9495
:1002A000C6000895862F8D520E94C60008950F93B0
:1002B0001F93CF93DF938A01E901882311F066230E
:1002C00019F40E94240102C00E943701C530D105F3
:1002D00071F4C80160E177E20E94110CCB01C09675
:1002E00090931201809311010E94FF0003C0C4305B
:1002F000D105B9F4C80168EE73E00E94110CCB017E
:1003000070931A01609319016AE070E00E94110C69
:10031000C09690930C0280930B020E94FF0081E034
:1003200001C080E0C330D10511F08130B1F4C801C3
:1003300064E670E00E94110CCB0170931A01609387
:1003400019016AE070E00E94110CC0969093A4011C
:100350008093A3010E94FF0081E0C230D10511F01B
:100360008130B1F42AE030E0C801B9010E94110CDB
:10037000CB0170931A0160931901B9010E94110C0D
:10038000C09690939A01809399010E94FF0081E0AA
:10039000C130D10511F0813061F4C8016AE070E02C
:1003A0000E94110CC09690930A02809309020E9449
:1003B000FF00C630D1051CF085E40E94FF00DF91EC
:1003C000CF911F910F9108958E9A82B312BA08951A
:1003D0000E94E4010895969A8BE78A95F1F7969822
:1003E0000895F8940E94E8010E947F00789408958F
:1003F0001F920F920FB60F9211248F939F93AF937A
:10040000BF938091A3009091A400A091A500B0910A
:10041000A6000196A11DB11D8093A3009093A40096
:10042000A093A500B093A600BF91AF919F918F912B
:100430000F900FBE0F901F901895F894BA98C29A1B
:1004400080E28BBF84B78F7B84BF789408958BB78D
:100450008F7D8BBF089588B3877E88BB0895C49A2B
:10046000C39A0895C49AC39808950E9432021092C4
:10047000A3001092A4001092A5001092A6008FEF86
:100480009FE7A4E081509040A040E1F700C0000049
:100490008091A3009091A400A091A500B091A60026
:1004A00080930B0190930C01A0930D01B0930E016A
:1004B0000E94490081E061E00E9437018FEF9FE7D1
:1004C000A6E181509040A040E1F700C0000081E02B
:1004D0000E94C60008950E942B021092A300109261
:1004E000A4001092A5001092A6008FEF9FE7A4E051
:1004F00081509040A040E1F700C000008091A3002F
:100500009091A400A091A500B091A6008093210134
:1005100090932201A0932301B09324010E944900EB
:1005200081E061E00E9437018FEF9FE7A6E18150F3
:100530009040A040E1F700C0000081E00E94C600AA
:1005400008950E942F021092A3001092A40010920E
:10055000A5001092A60081E090E090930A0180939C
:1005600009018FEF9FE7A4E081509040A040E1F7A0
:1005700000C000008091A3009091A400A091A5006C
:10058000B091A60080931D0190931E01A0931F01BE
:10059000B09320010E94490081E061E00E94370190
:1005A0008FEF9FE7A6E181509040A040E1F700C0A7
:1005B000000081E00E94C6008FEF9FE9A5E0815016
:1005C0009040A040E1F700C00000089587B38B6120
:1005D00087BBC09AC19808952091A1003091A200D4
:1005E000F901EE0FFF1FE95CFE4F918380832F5FBF
:1005F0003F4F3093A2002093A1000895E7E3F1E07C
:1006000029E931E083E690E081939193E217F307C3
:10061000D9F78CE290E00E94EC028BE290E00E941D
:10062000EC028AE290E00E94EC020895EF92FF92C1
:100630000F931F93CF93DF939C017B01EA01FC0191
:100640003796EE0FFF1FE40FF51F808191818336EF
:10065000910559F4CB0101978230910548F42A3273
:1006600031054CF000E010E008C000E010E005C0EB
:1006700000E010E002C004E010E0F9013197EE0F55
:10068000FF1FEC0FFD1F808191818336910549F496
:10069000C90167E070E00E94250C009711F0085F27
:1006A0001F4FF9013196EE0FFF1FEC0FFD1F8081E8
:1006B00091818336910551F4C901069767E070E096
:1006C0000E94250C009711F00E5F1F4FC90107977C
:1006D000880F991FC80FD91F88819981833691058A
:1006E00069F484E0E816F10421F082E0E816F104F0
:1006F00029F42730310514F00F5F1F4F802F912F01
:10070000DF91CF911F910F91FF90EF9008952F925D
:100710003F924F925F926F927F928F929F92AF9291
:10072000BF92CF92DF92EF92FF920F931F93CF93DE
:10073000DF936C01A62EB72EC7EAD0E009E011E0E6
:10074000FE0183E690E081939193E017F107D9F7DA
:10075000A42FB52F40E050E0EC2EFD2E64E670E0B3
:100760001092180110921701EE2DFF2D20E030E0BD
:100770008D919C9111972817390711F4718360832B
:100780002F5F3F4F3093180120931701329621338A
:10079000310571F74F5F5F4F12964330510501F7F6
:1007A000A0923701B092380181E090E09093180157
:1007B000809317010F2EFCE42F2EF0E03F2EF02D3A
:1007C0008A2D9B2DB601F1010995EA2CFB2CAA2458
:1007D000BB240F2EF7EA4F2EF0E05F2EF02D0F2EE8
:1007E000F7E38F2EF1E09F2EF02D6624772463949B
:1007F00048C0C701B601F101099581E0A816B1040E
:1008000009F03FC080912601909127010097C1F126
:100810008091A5019091A60120919B0130919C01AE
:100820008217930724F40894E11CF11C06C02817D2
:1008300039071CF40894E108F108C7010797C816A6
:10084000D90631F0C7010796C816D90631F403C09E
:10085000AA24BB2402C0AA24BB24209117013091F2
:100860001801C901880F991F880D991DFC01F1829B
:10087000E082C9010196909318018093170101C08D
:100880005301EC14FD0409F472C1C6018E199F09CD
:10089000181619060CF048C0209126013091270146
:1008A0002115310509F440C0C701B301A2010E941E
:1008B00016038230910521F40894E11CF11C21C03B
:1008C0008830910521F40894E108F1081AC08A30B3
:1008D000910599F48091A5019091A60120919B0129
:1008E00030919C018217930724F40894E11CF11CB9
:1008F00008C00894E108F10804C087E090E0E80E21
:10090000F91E2091170130911801C901880F991F14
:10091000880D991DFC01F182E082C9010196909336
:1009200018018093170165CF99230CF048C080917E
:10093000260190912701009709F441C0C70164E0A6
:1009400070E0A2010E9416038230910521F4089400
:10095000E11CF11C21C08830910521F40894E108C4
:10096000F1081AC08A30910599F48091A5019091FF
:10097000A60120919B0130919C018217930724F4DA
:100980000894E11CF11C08C00894E108F10804C0B7
:1009900089EF9FEFE80EF91E2091170130911801A1
:1009A000C901880F991F880D991DFC01F182E08211
:1009B000C901019690931801809317011ACFC701BE
:1009C00062E070E0A2010E9416038F30910599F455
:1009D0008091A5019091A60120919B0130919C01ED
:1009E0008217930724F40894E11CF11CA8C0089412
:1009F000E108F108A4C08B30910519F08E30910503
:100A0000B9F48091A5019091A60120919B013091AC
:100A10009C018217930724F40894E11CF11C8FC0F9
:100A2000281739070CF08BC00894E108F10887C03B
:100A30008D309105C1F48091A5019091A60120917E
:100A40009B0130919C01821793072CF489EF9FEF53
:100A5000E80EF91E74C0281739070CF070C008940E
:100A6000E108F1086CC087309105C1F48091A501BF
:100A70009091A60120919B0130919C0182179307D0
:100A800024F40894E11CF11C5AC0281739070CF013
:100A900056C0E9EFFFEFEE0EFF1E51C08130910509
:100AA00019F08530910529F489EF9FEFE80EF91EC2
:100AB00046C08C30910519F086309105D9F48091AB
:100AC0009B0190919C012091A5013091A6012817CE
:100AD000390724F40894E11CF11C31C082179307F4
:100AE00024F40894E108F1082AC0E7E0F0E0EE0EF3
:100AF000FF1E25C08930910519F083309105D9F486
:100B00008091A5019091A60120919B0130919C01BB
:100B10008217930724F40894E11CF11C10C02817D5
:100B2000390724F40894E108F10809C089EF9FEF20
:100B3000E80EF91E04C0E7E0F0E0EE0EFF1E209183
:100B4000170130911801C901880F991F880D991D4F
:100B5000FC01F182E082C901019690931801809313
:100B60001701C701B601F101099553014BCE83E688
:100B700090E089939993C017D107D9F78091170115
:100B800090911801DF91CF911F910F91FF90EF90FD
:100B9000DF90CF90BF90AF909F908F907F906F909D
:100BA0005F904F903F902F9008951F920F920FB635
:100BB0000F9211242F933F934F935F938F939F93A3
:100BC000AF93BF93EF93FF938CB190E0C0978233C4
:100BD000910500F5E0919400F09195009C01245658
:100BE0003040EE0FFF1FE55DFE4F318320832091E3
:100BF0009400309195002F5F3F4F309395002093E4
:100C000094002FEF3FE342E0215030404040E1F7B5
:100C100000C000009C012456304022333105E0F42E
:100C2000E0919200F0919300EE0FFF1FE356FE4F0C
:100C3000918380838091920090919300019690938C
:100C40009300809392008FEF9FE3A2E08150904049
:100C5000A040E1F700C00000FF91EF91BF91AF917C
:100C60009F918F915F914F913F912F910F900FBE68
:100C70000F901F901895A39AAB98089583B388603E
:100C800085BB089583B3877F85BB08951AB81BB8C9
:100C900086E880BD8FE289B910BC88E98AB90895D9
:100CA0005D9BFECF8CB90895CF93DF93C82FD92FCA
:100CB00081E00E94C60081E062E04C2F5D2F24E0BD
:100CC00030E00E9457015D9BFECFC05DCCB98FEF35
:100CD0009FE7A6E181509040A040E1F700C00000EE
:100CE000DF91CF910895F8940E9446067894089574
:100CF00084B3876F84BB85B3807885BB08951ABAA7
:100D00001BBA089587B38F6087BB88B3807F88BB89
:100D100081B3806381BB82B3806382BB0895F89402
:100D20000E9478060E947F060E94820678940895A9
:100D30001EBC8FEF8DBD91E09CBD1BBC8ABD19BC54
:100D400088BD17BC86BD81EA8FBD8DE08EBD08953C
:100D50008770806287B9369A349BFECF85B1349A0A
:100D60000895CF93DF93D82FC62F842F0E94A80613
:100D7000482F809325018D2F6C2F50E023E030E029
:100D80000E945701DF91CF91089598B3907F8F70A3
:100D9000982B98BB089586E00E94C506089589E0C7
:100DA0000E94C506089585E00E94C50608958AE060
:100DB0000E94C506089584E00E94C506089582E059
:100DC0000E94C506089581E00E94C506089588E046
:100DD0000E94C506089580E00E94C50608958FE030
:100DE0000E94C50608951BBC8ABD19BC68BD089544
:100DF000F8940E948F060E9498060E947F000E942D
:100E0000F1017894089583E00E94A80680939800E9
:100E100084E00E94A8068093970085E00E94A806BF
:100E200080939600089534C00E94EB0187E00E94F1
:100E3000A806880F80932A01809198008D3078F45D
:100E4000909197009E30B0F0909196009D3090F474
:100E500087E362E30E94F3060E94CB0617C09091DD
:100E600096009C3038F48EE160E00E94F3060E9408
:100E7000E3060CC08C3050F4809196008D3030F039
:100E800080E06EE10E94F3060E94E7060E940307DD
:100E9000809197008E3040F2809196008E3020F243
:100EA000809198008E3008F4BFCF08958AE56AE5F6
:100EB0000E94F3060E94CB068FEF9FE5ACE08150C5
:100EC0009040A040E1F700C000000E9403070E948C
:100ED00013070E94EB068FEF9FEBAFE0815090402D
:100EE000A040E1F700C000000E940307089588E7D2
:100EF00068E70E94F3060E94D7068FEF9FE5A5E101
:100F000081509040A040E1F700C000000E9403071C
:100F10000E9413070E94EB068FEF9FEDA0E1815026
:100F20009040A040E1F700C000000E940307089530
:100F300080E066E40E94F3060E94DB068FEF9FEFDD
:100F4000ACE281509040A040E1F700C000000E9458
:100F500003070E9413070E94EB068FEF9FEDA0E1AD
:100F600081509040A040E1F700C000000E940307BC
:100F7000089586E460E00E94F3060E94DF068FEF8A
:100F80009FEFACE281509040A040E1F700C000002C
:100F90000E9403070E9413070E94EB068FEF9FED4C
:100FA000A0E181509040A040E1F700C000000E9405
:100FB000030708952F923F924F925F926F927F9214
:100FC0008F929F92AF92BF92CF92DF92EF92FF9259
:100FD0000F931F93CF93DF93009137011091380146
:100FE000A0908C00B0908D000336110509F4F3C079
:100FF000E9E3F1E06624772463948191919183364B
:10100000910541F00894611C711C81E3681671041C
:10101000A1F70DC1F301EE0FFF1FEB5CFE4F408106
:10102000518182E06AE022E030E00E94570177209F
:101030000CF0DDC0EDC0C80101979093A000809333
:101040009F0082E067E0A80122E030E00E945701A3
:10105000F601C191D1916F01C8010196C817D90756
:10106000C9F4F3E0AF16B10419F40E9477070FC07A
:10107000A114B10419F40E94B90709C082E0A816AE
:10108000B10419F40E94980702C00E9456078E010D
:1010900052016CC080919F009091A000C817D907A1
:1010A000D1F4E1E0AE16B10419F40E9477070FC045
:1010B000A114B10419F40E94980709C0F2E0AF1618
:1010C000B10419F40E94B90702C00E9456070150EA
:1010D000104051014BC00F2EF9EF8F2EFFEF9F2EC6
:1010E000F02D800E911E8C169D06D9F482E0A81674
:1010F000B10419F40E94770710C0E1E0AE16B10404
:1011000019F40E94980709C0F3E0AF16B10419F46E
:101110000E94B90702C00E9456078401AA24BB247A
:1011200025C00F2EF7E08F2E9924F02D800E911EF2
:101130008C169D06D9F4A114B10419F40E94770706
:1011400010C081E0A816B10419F40E94B90709C0C3
:10115000E3E0AE16B10419F40E94980702C00E94A1
:1011600056078401AA24BB246894A1F80894E11CC2
:10117000F11C6E147F040CF05ECFB0928D00A09233
:101180008C0000930F01109310014AC021933193FA
:10119000E817F907D9F781E390E09093290180934C
:1011A000280181E06AE0A80122E030E00E945701B6
:1011B000DF91CF911F910F91FF90EF90DF90CF9033
:1011C000BF90AF909F908F907F906F905F904F9067
:1011D0003F902F900895409135015091360182E063
:1011E0006AE022E030E00E945701662477240F2E47
:1011F000F7E3CF2EF1E0DF2EF02DEE24FF240F2EAB
:10120000F3E02F2E3324F02D44245524439413CFA0
:10121000B0928D00A0928C001093100100930F01EA
:10122000E7E3F1E089E991E023E630E0AFCFF301B5
:10123000EE0FFF1FEB5CFE4F4081518182E06AE0C0
:1012400022E030E00E945701D2CF8F929F92AF925E
:10125000BF92CF92DF92EF92FF920F931F93CF93A3
:10126000DF93CDB7DEB760970FB6F894DEBF0FBE41
:10127000CDBF7C019A83898360910F017091100129
:101280000F2EFDE9CF2EF1E0DF2EF02DA6010E94FA
:1012900087038C019A878987C70107969C838B8374
:1012A00060910F0170911001A6010E9487035C01FB
:1012B0009C878B87C70108969E838D8360910F0161
:1012C00070911001A6010E9487034C019E878D87B3
:1012D000C701019698878F8360910F01709110016B
:1012E000A6010E948703DC01A114B104C1F081149E
:1012F0009104C1F00097C9F001151105C9F0A501CD
:10130000BC01940181E090E0FC018417950791F005
:101310008217930779F08617970791F40BC0E0E0E6
:10132000F0E008C0E0E0F0E005C0E0E0F0E002C07E
:10133000E0E0F0E089859A858E179F0741F41DC093
:1013400001501040019601151105F1F6F3CF8B8580
:101350009C858E179F0759F08D859E858E179F0758
:1013600049F0AE17BF0761F4E3E0F0E00BC0E1E045
:10137000F0E008C0E2E0F0E005C0E0E0F0E002C02C
:10138000E4E0F0E0EE0FFF1FEC0FFD1F60910F0196
:1013900070911001818192814DE951E00E94870393
:1013A00060960FB6F894DEBF0FBECDBFDF91CF9130
:1013B0001F910F91FF90EF90DF90CF90BF90AF9073
:1013C0009F908F90089566E070E00E94250C9B012D
:1013D000220F331F220F331F220F331F261B370B01
:1013E000280F391F80919D0090919E0081309105BA
:1013F00019F4822F932F0895C9010E942509089599
:10140000CF93DF93C1E0D0E0D0939E00C0939D00C6
:10141000E0911301F0911401EE0FFF1FE55DFE4F07
:10142000808191810E94E3099C01D0939100C09337
:101430009000AC014F5F5F4F80910F0190911001C0
:101440004817590759F45093380140933701285FE2
:101450003F4F30933A012093390128C0A901485FDA
:101460005F4F8417950751F49093380180933701AB
:10147000019790933A018093390118C0295F3F4F3B
:101480008217930751F4909338018093370107979F
:1014900090933A018093390109C090933801809369
:1014A0003701019690933A018093390110929E0082
:1014B00010929D000E94DA07109291001092900005
:1014C000DF91CF910895EF92FF920F931F93CF93E7
:1014D000DF930E94F8060E9487000E94EB000E94A2
:1014E00073060E943B0620E030E0ADE9B1E043E640
:1014F00050E06BE271E0F9012330310544F4C90199
:10150000880F991F8A0F9B1FEC0159834883EE0FA8
:10151000FF1FE60FF71F518340832F5F3F4F273098
:10152000310549F7E7E3F1E029E931E083E690E0AE
:1015300081939193E217F307D9F781E390E09093B9
:101540001401809313010E94FE020E94DA0781E2D7
:1015500090E00E94540686E190E00E9454068CE0E0
:1015600090E00E9454068FEB90E00E94540681EDBB
:1015700090E00E9454068FEF9FEFA0EE81509040C4
:10158000A040E1F700C00000CBE2D1E00F2EF5E073
:10159000EF2EFF24F02D03E610E081E00E94C6004C
:1015A000409194005091950081E06EE021E030E0A0
:1015B0000E945701109214011092130180E090E0F4
:1015C000FC01EE0FFF1FEC0FFD1F4081518182E0F7
:1015D0006CE024E030E00E9457018FEF9FE7A6E126
:1015E00081509040A040E1F700C0000080911301BD
:1015F000909114010196909314018093130183300C
:101600009105F4F2809194009091950083309105BA
:101610000CF451C010929C0010929B0081E00E943B
:10162000C6001092140110921301888199818336AB
:101630009105E9F120E030E0F901EE0FFF1FEC0F1A
:10164000FD1F4081518181E06EE022E030E00E9488
:101650005701E0911301F0911401EE0FFF1FEC0F01
:10166000FD1F808191810E94E3090E94DA070E9498
:10167000000A2091130130911401F901EE0FFF1FB0
:10168000EC0FFD1F118300832F5F3F4F3093140138
:10169000209313012630310554F4F901EE0FFF1F9A
:1016A000EC0FFD1F808191818336910529F6F09220
:1016B0009C00E0929B0080919B0090919C00853063
:1016C000910509F06ACF60910F01709110018DE0D2
:1016D00090E04DE951E00E9487030E94DA0780E024
:1016E00090E0DF91CF911F910F91FF90EF900895BF
:1016F00018BA80E060E00E94F3060E941D020E947A
:10170000E6020E946B0289E999E5A1E081509040D0
:10171000A040E1F700000E94A10289E999E5A1E05B
:1017200081509040A040E1F700008CE390E00E94DF
:10173000350289E999E5A1E081509040A040E1F7A8
:10174000000040912101509122016091230170918C
:10175000240180911D0190911E01A0911F01B09163
:10176000200184179507A607B707F8F440912101D7
:1017700050912201609123017091240180910B010D
:1017800090910C01A0910D01B0910E018417950765
:10179000A607B70728F480E690E00E94280123C03E
:1017A0008AE690E00E9428011EC040911D015091E0
:1017B0001E0160911F017091200180910B01909199
:1017C0000C01A0910D01B0910E0184179507A60799
:1017D000B70728F485E790E00E94280104C081E85B
:1017E00090E00E9428010E94270287B38F6087BB88
:1017F00088B3807F88BB82E36DE20E94F3060E947B
:10180000CB068FEF9FE7A6E181509040A040E1F723
:1018100000C0000081E090E09093290180932801AE
:101820000895AA1BBB1B51E107C0AA1FBB1FA61727
:10183000B70710F0A61BB70B881F991F5A95A9F779
:1018400080959095BC01CD01089597FB092E072640
:101850000AD077FD04D0E5DF06D000201AF4709599
:1018600061957F4F0895F6F7909581959F4F089564
:04187000F894FFCF1A
:1018740072656420636F6C6F7200626C75655F6380
:101884006F6C6F7200677265656E20636F6C6F7248
:1018940000626C756520636F6C6F7200010000005C
:00000001FF
