:100000000C942A000C9447000C9447000C94470071
:100010000C9447000C9447000C9447000C94470044
:100020000C9447000C9447000C9447000C94680013
:100030000C9447000C9447000C9447000C94470024
:100040000C9447000C9447000C9447000C94470014
:100050000C94470011241FBECFE5D4E0DEBFCDBF16
:1000600010E0A0E6B0E0EEE3F1E002C005900D92F2
:10007000A036B107D9F710E0A0E6B0E001C01D92AC
:10008000A036B107E1F70E948F000C949D000C94FC
:100090000000A39AAB9808950E944900089583B385
:1000A000886085BB089583B3877F85BB08951AB8A0
:1000B0001BB886E880BD8FE289B910BC88E98AB98F
:1000C0000895F8940E944C000E9457007894089577
:1000D0001F920F920FB60F9211242F933F934F93BD
:1000E0005F936F937F938F939F93AF93BF93EF93A0
:1000F000FF938CB1883311F40E944F00FF91EF9170
:10010000BF91AF919F918F917F916F915F914F912F
:100110003F912F910F900FBE0F901F9018950E9446
:1001200061008FEF9FE7A6E181509040A040E1F78A
:0E01300000C000000E945300F4CFF894FFCFEF
:00000001FF
